{
  "contractName": "SocialRecoveryWalletNew",
  "abi": [
    {
      "inputs": [
        {
          "internalType": "address",
          "name": "_spender",
          "type": "address"
        },
        {
          "internalType": "address[]",
          "name": "_guardians",
          "type": "address[]"
        },
        {
          "internalType": "uint256",
          "name": "_numConfirmationsRequired",
          "type": "uint256"
        },
        {
          "internalType": "uint256",
          "name": "_numConfirmationsRequiredToChangeSpender",
          "type": "uint256"
        },
        {
          "internalType": "uint256",
          "name": "_numConfirmationsRequiredToAddTrustedAddress",
          "type": "uint256"
        }
      ],
      "stateMutability": "nonpayable",
      "type": "constructor"
    },
    {
      "anonymous": false,
      "inputs": [
        {
          "indexed": true,
          "internalType": "address",
          "name": "guardian",
          "type": "address"
        },
        {
          "indexed": true,
          "internalType": "uint256",
          "name": "txIndex",
          "type": "uint256"
        }
      ],
      "name": "ConfirmTransaction",
      "type": "event"
    },
    {
      "anonymous": false,
      "inputs": [
        {
          "indexed": true,
          "internalType": "address",
          "name": "sender",
          "type": "address"
        },
        {
          "indexed": false,
          "internalType": "uint256",
          "name": "amount",
          "type": "uint256"
        },
        {
          "indexed": false,
          "internalType": "uint256",
          "name": "balance",
          "type": "uint256"
        }
      ],
      "name": "Deposit",
      "type": "event"
    },
    {
      "anonymous": false,
      "inputs": [
        {
          "indexed": true,
          "internalType": "address",
          "name": "guardian",
          "type": "address"
        },
        {
          "indexed": true,
          "internalType": "uint256",
          "name": "txIndex",
          "type": "uint256"
        }
      ],
      "name": "ExecuteTransaction",
      "type": "event"
    },
    {
      "anonymous": false,
      "inputs": [
        {
          "indexed": true,
          "internalType": "address",
          "name": "guardian",
          "type": "address"
        },
        {
          "indexed": true,
          "internalType": "uint256",
          "name": "txIndex",
          "type": "uint256"
        }
      ],
      "name": "RevokeConfirmation",
      "type": "event"
    },
    {
      "anonymous": false,
      "inputs": [
        {
          "indexed": true,
          "internalType": "address",
          "name": "guardian",
          "type": "address"
        },
        {
          "indexed": true,
          "internalType": "uint256",
          "name": "txIndex",
          "type": "uint256"
        },
        {
          "indexed": true,
          "internalType": "address",
          "name": "to",
          "type": "address"
        },
        {
          "indexed": false,
          "internalType": "uint256",
          "name": "value",
          "type": "uint256"
        },
        {
          "indexed": false,
          "internalType": "bytes",
          "name": "data",
          "type": "bytes"
        }
      ],
      "name": "SubmitTransaction",
      "type": "event"
    },
    {
      "inputs": [
        {
          "internalType": "uint256",
          "name": "",
          "type": "uint256"
        }
      ],
      "name": "addTrustedAddressRequests",
      "outputs": [
        {
          "internalType": "address",
          "name": "newTrustedAddress",
          "type": "address"
        },
        {
          "internalType": "bool",
          "name": "executed",
          "type": "bool"
        },
        {
          "internalType": "uint256",
          "name": "numConfirmations",
          "type": "uint256"
        }
      ],
      "stateMutability": "view",
      "type": "function"
    },
    {
      "inputs": [
        {
          "internalType": "uint256",
          "name": "",
          "type": "uint256"
        }
      ],
      "name": "changeSpenderRequests",
      "outputs": [
        {
          "internalType": "address",
          "name": "newSpender",
          "type": "address"
        },
        {
          "internalType": "bool",
          "name": "executed",
          "type": "bool"
        },
        {
          "internalType": "uint256",
          "name": "numConfirmations",
          "type": "uint256"
        }
      ],
      "stateMutability": "view",
      "type": "function"
    },
    {
      "inputs": [
        {
          "internalType": "uint256",
          "name": "",
          "type": "uint256"
        }
      ],
      "name": "guardians",
      "outputs": [
        {
          "internalType": "address",
          "name": "",
          "type": "address"
        }
      ],
      "stateMutability": "view",
      "type": "function"
    },
    {
      "inputs": [
        {
          "internalType": "uint256",
          "name": "",
          "type": "uint256"
        },
        {
          "internalType": "address",
          "name": "",
          "type": "address"
        }
      ],
      "name": "isAddTrustedAddressRequestConfirmed",
      "outputs": [
        {
          "internalType": "bool",
          "name": "",
          "type": "bool"
        }
      ],
      "stateMutability": "view",
      "type": "function"
    },
    {
      "inputs": [
        {
          "internalType": "uint256",
          "name": "",
          "type": "uint256"
        },
        {
          "internalType": "address",
          "name": "",
          "type": "address"
        }
      ],
      "name": "isChangeSpenderRequestConfirmed",
      "outputs": [
        {
          "internalType": "bool",
          "name": "",
          "type": "bool"
        }
      ],
      "stateMutability": "view",
      "type": "function"
    },
    {
      "inputs": [
        {
          "internalType": "uint256",
          "name": "",
          "type": "uint256"
        },
        {
          "internalType": "address",
          "name": "",
          "type": "address"
        }
      ],
      "name": "isConfirmed",
      "outputs": [
        {
          "internalType": "bool",
          "name": "",
          "type": "bool"
        }
      ],
      "stateMutability": "view",
      "type": "function"
    },
    {
      "inputs": [
        {
          "internalType": "address",
          "name": "",
          "type": "address"
        }
      ],
      "name": "isGuardian",
      "outputs": [
        {
          "internalType": "bool",
          "name": "",
          "type": "bool"
        }
      ],
      "stateMutability": "view",
      "type": "function"
    },
    {
      "inputs": [
        {
          "internalType": "address",
          "name": "",
          "type": "address"
        }
      ],
      "name": "isTrustedAddress",
      "outputs": [
        {
          "internalType": "bool",
          "name": "",
          "type": "bool"
        }
      ],
      "stateMutability": "view",
      "type": "function"
    },
    {
      "inputs": [],
      "name": "numConfirmationsRequired",
      "outputs": [
        {
          "internalType": "uint256",
          "name": "",
          "type": "uint256"
        }
      ],
      "stateMutability": "view",
      "type": "function"
    },
    {
      "inputs": [],
      "name": "numConfirmationsRequiredToAddTrustedAddress",
      "outputs": [
        {
          "internalType": "uint256",
          "name": "",
          "type": "uint256"
        }
      ],
      "stateMutability": "view",
      "type": "function"
    },
    {
      "inputs": [],
      "name": "numConfirmationsRequiredToChangeSpender",
      "outputs": [
        {
          "internalType": "uint256",
          "name": "",
          "type": "uint256"
        }
      ],
      "stateMutability": "view",
      "type": "function"
    },
    {
      "inputs": [],
      "name": "spender",
      "outputs": [
        {
          "internalType": "address",
          "name": "",
          "type": "address"
        }
      ],
      "stateMutability": "view",
      "type": "function"
    },
    {
      "inputs": [
        {
          "internalType": "uint256",
          "name": "",
          "type": "uint256"
        }
      ],
      "name": "transactions",
      "outputs": [
        {
          "internalType": "address",
          "name": "to",
          "type": "address"
        },
        {
          "internalType": "uint256",
          "name": "value",
          "type": "uint256"
        },
        {
          "internalType": "bytes",
          "name": "data",
          "type": "bytes"
        },
        {
          "internalType": "bool",
          "name": "executed",
          "type": "bool"
        },
        {
          "internalType": "uint256",
          "name": "numConfirmations",
          "type": "uint256"
        }
      ],
      "stateMutability": "view",
      "type": "function"
    },
    {
      "stateMutability": "payable",
      "type": "receive"
    },
    {
      "inputs": [
        {
          "internalType": "address",
          "name": "_to",
          "type": "address"
        },
        {
          "internalType": "uint256",
          "name": "_value",
          "type": "uint256"
        },
        {
          "internalType": "bytes",
          "name": "_data",
          "type": "bytes"
        }
      ],
      "name": "submitTransaction",
      "outputs": [],
      "stateMutability": "nonpayable",
      "type": "function"
    },
    {
      "inputs": [
        {
          "internalType": "uint256",
          "name": "_txIndex",
          "type": "uint256"
        }
      ],
      "name": "confirmTransaction",
      "outputs": [],
      "stateMutability": "nonpayable",
      "type": "function"
    },
    {
      "inputs": [
        {
          "internalType": "uint256",
          "name": "_txIndex",
          "type": "uint256"
        }
      ],
      "name": "executeTransaction",
      "outputs": [],
      "stateMutability": "nonpayable",
      "type": "function"
    },
    {
      "inputs": [
        {
          "internalType": "uint256",
          "name": "_txIndex",
          "type": "uint256"
        }
      ],
      "name": "revokeConfirmation",
      "outputs": [],
      "stateMutability": "nonpayable",
      "type": "function"
    },
    {
      "inputs": [
        {
          "internalType": "address",
          "name": "_newSpender",
          "type": "address"
        }
      ],
      "name": "submitChangeSpenderRequest",
      "outputs": [],
      "stateMutability": "nonpayable",
      "type": "function"
    },
    {
      "inputs": [
        {
          "internalType": "uint256",
          "name": "_reqIndex",
          "type": "uint256"
        }
      ],
      "name": "confirmChangeSpenderRequest",
      "outputs": [],
      "stateMutability": "nonpayable",
      "type": "function"
    },
    {
      "inputs": [
        {
          "internalType": "uint256",
          "name": "_reqIndex",
          "type": "uint256"
        }
      ],
      "name": "revokeChangeSpenderRequestConfirmation",
      "outputs": [],
      "stateMutability": "nonpayable",
      "type": "function"
    },
    {
      "inputs": [
        {
          "internalType": "address",
          "name": "_newTrustedAddress",
          "type": "address"
        }
      ],
      "name": "submitAddTrustedAddressRequest",
      "outputs": [],
      "stateMutability": "nonpayable",
      "type": "function"
    },
    {
      "inputs": [
        {
          "internalType": "uint256",
          "name": "_reqIndex",
          "type": "uint256"
        }
      ],
      "name": "confirmAddTrustedAddressRequest",
      "outputs": [],
      "stateMutability": "nonpayable",
      "type": "function"
    },
    {
      "inputs": [
        {
          "internalType": "uint256",
          "name": "_reqIndex",
          "type": "uint256"
        }
      ],
      "name": "revokeAddTrustedAddressRequestConfirmation",
      "outputs": [],
      "stateMutability": "nonpayable",
      "type": "function"
    },
    {
      "inputs": [],
      "name": "getGuardians",
      "outputs": [
        {
          "internalType": "address[]",
          "name": "",
          "type": "address[]"
        }
      ],
      "stateMutability": "view",
      "type": "function"
    },
    {
      "inputs": [],
      "name": "getTransactionCount",
      "outputs": [
        {
          "internalType": "uint256",
          "name": "",
          "type": "uint256"
        }
      ],
      "stateMutability": "view",
      "type": "function"
    },
    {
      "inputs": [
        {
          "internalType": "uint256",
          "name": "_txIndex",
          "type": "uint256"
        }
      ],
      "name": "getTransaction",
      "outputs": [
        {
          "internalType": "address",
          "name": "to",
          "type": "address"
        },
        {
          "internalType": "uint256",
          "name": "value",
          "type": "uint256"
        },
        {
          "internalType": "bytes",
          "name": "data",
          "type": "bytes"
        },
        {
          "internalType": "bool",
          "name": "executed",
          "type": "bool"
        },
        {
          "internalType": "uint256",
          "name": "numConfirmations",
          "type": "uint256"
        }
      ],
      "stateMutability": "view",
      "type": "function"
    }
  ],
  "bytecode": "0x60806040523480156200001157600080fd5b506040516200452b3803806200452b83398181016040528101906200003791906200042c565b60008451116200007e576040517f08c379a0000000000000000000000000000000000000000000000000000000008152600401620000759062000585565b60405180910390fd5b6000831015801562000091575083518311155b620000d3576040517f08c379a0000000000000000000000000000000000000000000000000000000008152600401620000ca90620005c9565b60405180910390fd5b60005b8451811015620002fa5760008582815181106200011c577f4e487b7100000000000000000000000000000000000000000000000000000000600052603260045260246000fd5b60200260200101519050600073ffffffffffffffffffffffffffffffffffffffff168173ffffffffffffffffffffffffffffffffffffffff16141562000199576040517f08c379a00000000000000000000000000000000000000000000000000000000081526004016200019090620005a7565b60405180910390fd5b600160008273ffffffffffffffffffffffffffffffffffffffff1673ffffffffffffffffffffffffffffffffffffffff16815260200190815260200160002060009054906101000a900460ff161562000229576040517f08c379a0000000000000000000000000000000000000000000000000000000008152600401620002209062000563565b60405180910390fd5b60018060008373ffffffffffffffffffffffffffffffffffffffff1673ffffffffffffffffffffffffffffffffffffffff16815260200190815260200160002060006101000a81548160ff0219169083151502179055506000819080600181540180825580915050600190039060005260206000200160009091909190916101000a81548173ffffffffffffffffffffffffffffffffffffffff021916908373ffffffffffffffffffffffffffffffffffffffff160217905550508080620002f190620006c8565b915050620000d6565b5084600560006101000a81548173ffffffffffffffffffffffffffffffffffffffff021916908373ffffffffffffffffffffffffffffffffffffffff160217905550826002819055508160038190555080600481905550505050505062000883565b6000620003736200036d8462000614565b620005eb565b905080838252602082019050828560208602820111156200039357600080fd5b60005b85811015620003c75781620003ac8882620003d1565b84526020840193506020830192505060018101905062000396565b5050509392505050565b600081519050620003e2816200084f565b92915050565b600082601f830112620003fa57600080fd5b81516200040c8482602086016200035c565b91505092915050565b600081519050620004268162000869565b92915050565b600080600080600060a086880312156200044557600080fd5b60006200045588828901620003d1565b955050602086015167ffffffffffffffff8111156200047357600080fd5b6200048188828901620003e8565b9450506040620004948882890162000415565b9350506060620004a78882890162000415565b9250506080620004ba8882890162000415565b9150509295509295909350565b6000620004d660138362000643565b9150620004e38262000785565b602082019050919050565b6000620004fd60128362000643565b91506200050a82620007ae565b602082019050919050565b60006200052460108362000643565b91506200053182620007d7565b602082019050919050565b60006200054b60288362000643565b9150620005588262000800565b604082019050919050565b600060208201905081810360008301526200057e81620004c7565b9050919050565b60006020820190508181036000830152620005a081620004ee565b9050919050565b60006020820190508181036000830152620005c28162000515565b9050919050565b60006020820190508181036000830152620005e4816200053c565b9050919050565b6000620005f76200060a565b905062000605828262000692565b919050565b6000604051905090565b600067ffffffffffffffff82111562000632576200063162000745565b5b602082029050602081019050919050565b600082825260208201905092915050565b6000620006618262000668565b9050919050565b600073ffffffffffffffffffffffffffffffffffffffff82169050919050565b6000819050919050565b6200069d8262000774565b810181811067ffffffffffffffff82111715620006bf57620006be62000745565b5b80604052505050565b6000620006d58262000688565b91507fffffffffffffffffffffffffffffffffffffffffffffffffffffffffffffffff8214156200070b576200070a62000716565b5b600182019050919050565b7f4e487b7100000000000000000000000000000000000000000000000000000000600052601160045260246000fd5b7f4e487b7100000000000000000000000000000000000000000000000000000000600052604160045260246000fd5b6000601f19601f8301169050919050565b7f677561726469616e206e6f7420756e6971756500000000000000000000000000600082015250565b7f677561726469616e732072657175697265640000000000000000000000000000600082015250565b7f696e76616c696420677561726469616e00000000000000000000000000000000600082015250565b7f696e76616c6964206e756d626572206f6620726571756972656420636f6e666960008201527f726d6174696f6e73000000000000000000000000000000000000000000000000602082015250565b6200085a8162000654565b81146200086657600080fd5b50565b620008748162000688565b81146200088057600080fd5b50565b613c9880620008936000396000f3fe6080604052600436106101855760003560e01c80639df35ea4116100d1578063d0549b851161008a578063e8edc81611610064578063e8edc81614610631578063ee22610b1461065c578063ee3f02eb14610685578063f560c734146106ae576101dc565b8063d0549b85146105a0578063d16d4419146105cb578063e39a6ea3146105f4576101dc565b80639df35ea414610492578063a123d70f146104d1578063add0def1146104fc578063b361e43714610525578063c01a8c841461054e578063c642747414610577576101dc565b806333ea3dc81161013e578063697910a511610118578063697910a5146103ac57806380f59a65146103eb5780639ace38c2146104285780639d21b10214610469576101dc565b806333ea3dc81461031757806336f8ff6f146103585780635dac5b0214610383576101dc565b80630665f04b146101e15780630848a1361461020c5780630c68ba21146102495780631929dbe41461028657806320ea8d86146102c35780632e7700f0146102ec576101dc565b366101dc573373ffffffffffffffffffffffffffffffffffffffff167f90890809c654f11d6e72a28fa60149770a0d11ec6c92319d6ceb2bb0a4ea1a1534476040516101d292919061350b565b60405180910390a2005b600080fd5b3480156101ed57600080fd5b506101f66106eb565b6040516102039190613263565b60405180910390f35b34801561021857600080fd5b50610233600480360381019061022e9190612cee565b610779565b6040516102409190613285565b60405180910390f35b34801561025557600080fd5b50610270600480360381019061026b9190612cee565b610799565b60405161027d9190613285565b60405180910390f35b34801561029257600080fd5b506102ad60048036038101906102a89190612da7565b6107b9565b6040516102ba9190613285565b60405180910390f35b3480156102cf57600080fd5b506102ea60048036038101906102e59190612d7e565b6107e8565b005b3480156102f857600080fd5b50610301610b0e565b60405161030e91906134c0565b60405180910390f35b34801561032357600080fd5b5061033e60048036038101906103399190612d7e565b610b1b565b60405161034f959493929190613209565b60405180910390f35b34801561036457600080fd5b5061036d610c54565b60405161037a91906134c0565b60405180910390f35b34801561038f57600080fd5b506103aa60048036038101906103a59190612cee565b610c5a565b005b3480156103b857600080fd5b506103d360048036038101906103ce9190612d7e565b610dcb565b6040516103e2939291906131d2565b60405180910390f35b3480156103f757600080fd5b50610412600480360381019061040d9190612da7565b610e32565b60405161041f9190613285565b60405180910390f35b34801561043457600080fd5b5061044f600480360381019061044a9190612d7e565b610e61565b604051610460959493929190613209565b60405180910390f35b34801561047557600080fd5b50610490600480360381019061048b9190612cee565b610f5c565b005b34801561049e57600080fd5b506104b960048036038101906104b49190612d7e565b6110d2565b6040516104c8939291906131d2565b60405180910390f35b3480156104dd57600080fd5b506104e6611139565b6040516104f391906134c0565b60405180910390f35b34801561050857600080fd5b50610523600480360381019061051e9190612d7e565b61113f565b005b34801561053157600080fd5b5061054c60048036038101906105479190612d7e565b61143b565b005b34801561055a57600080fd5b5061057560048036038101906105709190612d7e565b611737565b005b34801561058357600080fd5b5061059e60048036038101906105999190612d17565b611a60565b005b3480156105ac57600080fd5b506105b5611c6e565b6040516105c291906134c0565b60405180910390f35b3480156105d757600080fd5b506105f260048036038101906105ed9190612d7e565b611c74565b005b34801561060057600080fd5b5061061b60048036038101906106169190612da7565b611f56565b6040516106289190613285565b60405180910390f35b34801561063d57600080fd5b50610646611f85565b60405161065391906131b7565b60405180910390f35b34801561066857600080fd5b50610683600480360381019061067e9190612d7e565b611fab565b005b34801561069157600080fd5b506106ac60048036038101906106a79190612d7e565b61236b565b005b3480156106ba57600080fd5b506106d560048036038101906106d09190612d7e565b61264d565b6040516106e291906131b7565b60405180910390f35b6060600080548060200260200160405190810160405280929190818152602001828054801561076f57602002820191906000526020600020905b8160009054906101000a900473ffffffffffffffffffffffffffffffffffffffff1673ffffffffffffffffffffffffffffffffffffffff1681526020019060010190808311610725575b5050505050905090565b60066020528060005260406000206000915054906101000a900460ff1681565b60016020528060005260406000206000915054906101000a900460ff1681565b60096020528160005260406000206020528060005260406000206000915091509054906101000a900460ff1681565b600160003373ffffffffffffffffffffffffffffffffffffffff1673ffffffffffffffffffffffffffffffffffffffff16815260200190815260200160002060009054906101000a900460ff16610874576040517f08c379a000000000000000000000000000000000000000000000000000000000815260040161086b90613360565b60405180910390fd5b8060088054905081106108bc576040517f08c379a00000000000000000000000000000000000000000000000000000000081526004016108b3906133a0565b60405180910390fd5b81600881815481106108f7577f4e487b7100000000000000000000000000000000000000000000000000000000600052603260045260246000fd5b906000526020600020906005020160030160009054906101000a900460ff1615610956576040517f08c379a000000000000000000000000000000000000000000000000000000000815260040161094d90613440565b60405180910390fd5b600060088481548110610992577f4e487b7100000000000000000000000000000000000000000000000000000000600052603260045260246000fd5b906000526020600020906005020190506007600085815260200190815260200160002060003373ffffffffffffffffffffffffffffffffffffffff1673ffffffffffffffffffffffffffffffffffffffff16815260200190815260200160002060009054906101000a900460ff16610a3f576040517f08c379a0000000000000000000000000000000000000000000000000000000008152600401610a3690613460565b60405180910390fd5b6001816004016000828254610a549190613666565b9250508190555060006007600086815260200190815260200160002060003373ffffffffffffffffffffffffffffffffffffffff1673ffffffffffffffffffffffffffffffffffffffff16815260200190815260200160002060006101000a81548160ff021916908315150217905550833373ffffffffffffffffffffffffffffffffffffffff167ff0dca620e2e81f7841d07bcc105e1704fb01475b278a9d4c236e1c62945edd5560405160405180910390a350505050565b6000600880549050905090565b6000806060600080600060088781548110610b5f577f4e487b7100000000000000000000000000000000000000000000000000000000600052603260045260246000fd5b906000526020600020906005020190508060000160009054906101000a900473ffffffffffffffffffffffffffffffffffffffff168160010154826002018360030160009054906101000a900460ff168460040154828054610bc090613724565b80601f0160208091040260200160405190810160405280929190818152602001828054610bec90613724565b8015610c395780601f10610c0e57610100808354040283529160200191610c39565b820191906000526020600020905b815481529060010190602001808311610c1c57829003601f168201915b50505050509250955095509550955095505091939590929450565b60045481565b3373ffffffffffffffffffffffffffffffffffffffff16600560009054906101000a900473ffffffffffffffffffffffffffffffffffffffff1673ffffffffffffffffffffffffffffffffffffffff1614610cea576040517f08c379a0000000000000000000000000000000000000000000000000000000008152600401610ce190613360565b60405180910390fd5b6000600c805490509050600c60405180606001604052808473ffffffffffffffffffffffffffffffffffffffff1681526020016000151581526020016000815250908060018154018082558091505060019003906000526020600020906002020160009091909190915060008201518160000160006101000a81548173ffffffffffffffffffffffffffffffffffffffff021916908373ffffffffffffffffffffffffffffffffffffffff16021790555060208201518160000160146101000a81548160ff0219169083151502179055506040820151816001015550505050565b600a8181548110610ddb57600080fd5b90600052602060002090600202016000915090508060000160009054906101000a900473ffffffffffffffffffffffffffffffffffffffff16908060000160149054906101000a900460ff16908060010154905083565b60076020528160005260406000206020528060005260406000206000915091509054906101000a900460ff1681565b60088181548110610e7157600080fd5b90600052602060002090600502016000915090508060000160009054906101000a900473ffffffffffffffffffffffffffffffffffffffff1690806001015490806002018054610ec090613724565b80601f0160208091040260200160405190810160405280929190818152602001828054610eec90613724565b8015610f395780601f10610f0e57610100808354040283529160200191610f39565b820191906000526020600020905b815481529060010190602001808311610f1c57829003601f168201915b5050505050908060030160009054906101000a900460ff16908060040154905085565b600160003373ffffffffffffffffffffffffffffffffffffffff1673ffffffffffffffffffffffffffffffffffffffff16815260200190815260200160002060009054906101000a900460ff16610fe8576040517f08c379a0000000000000000000000000000000000000000000000000000000008152600401610fdf90613360565b60405180910390fd5b6000600a805490509050600a60405180606001604052808473ffffffffffffffffffffffffffffffffffffffff1681526020016000151581526020016000815250908060018154018082558091505060019003906000526020600020906002020160009091909190915060008201518160000160006101000a81548173ffffffffffffffffffffffffffffffffffffffff021916908373ffffffffffffffffffffffffffffffffffffffff16021790555060208201518160000160146101000a81548160ff0219169083151502179055506040820151816001015550506110ce8161143b565b5050565b600c81815481106110e257600080fd5b90600052602060002090600202016000915090508060000160009054906101000a900473ffffffffffffffffffffffffffffffffffffffff16908060000160149054906101000a900460ff16908060010154905083565b60035481565b600160003373ffffffffffffffffffffffffffffffffffffffff1673ffffffffffffffffffffffffffffffffffffffff16815260200190815260200160002060009054906101000a900460ff166111cb576040517f08c379a00000000000000000000000000000000000000000000000000000000081526004016111c290613360565b60405180910390fd5b80600c805490508110611213576040517f08c379a000000000000000000000000000000000000000000000000000000000815260040161120a90613320565b60405180910390fd5b81600c818154811061124e577f4e487b7100000000000000000000000000000000000000000000000000000000600052603260045260246000fd5b906000526020600020906002020160000160149054906101000a900460ff16156112ad576040517f08c379a00000000000000000000000000000000000000000000000000000000081526004016112a490613300565b60405180910390fd5b82600b600082815260200190815260200160002060003373ffffffffffffffffffffffffffffffffffffffff1673ffffffffffffffffffffffffffffffffffffffff16815260200190815260200160002060009054906101000a900460ff161561134c576040517f08c379a0000000000000000000000000000000000000000000000000000000008152600401611343906132e0565b60405180910390fd5b6000600c8581548110611388577f4e487b7100000000000000000000000000000000000000000000000000000000600052603260045260246000fd5b9060005260206000209060020201905060018160010160008282546113ad9190613610565b925050819055506001600b600087815260200190815260200160002060003373ffffffffffffffffffffffffffffffffffffffff1673ffffffffffffffffffffffffffffffffffffffff16815260200190815260200160002060006101000a81548160ff021916908315150217905550600454816001015410611434576114338561268c565b5b5050505050565b600160003373ffffffffffffffffffffffffffffffffffffffff1673ffffffffffffffffffffffffffffffffffffffff16815260200190815260200160002060009054906101000a900460ff166114c7576040517f08c379a00000000000000000000000000000000000000000000000000000000081526004016114be90613360565b60405180910390fd5b80600a80549050811061150f576040517f08c379a0000000000000000000000000000000000000000000000000000000008152600401611506906132c0565b60405180910390fd5b81600a818154811061154a577f4e487b7100000000000000000000000000000000000000000000000000000000600052603260045260246000fd5b906000526020600020906002020160000160149054906101000a900460ff16156115a9576040517f08c379a00000000000000000000000000000000000000000000000000000000081526004016115a0906132a0565b60405180910390fd5b826009600082815260200190815260200160002060003373ffffffffffffffffffffffffffffffffffffffff1673ffffffffffffffffffffffffffffffffffffffff16815260200190815260200160002060009054906101000a900460ff1615611648576040517f08c379a000000000000000000000000000000000000000000000000000000000815260040161163f90613420565b60405180910390fd5b6000600a8581548110611684577f4e487b7100000000000000000000000000000000000000000000000000000000600052603260045260246000fd5b9060005260206000209060020201905060018160010160008282546116a99190613610565b9250508190555060016009600087815260200190815260200160002060003373ffffffffffffffffffffffffffffffffffffffff1673ffffffffffffffffffffffffffffffffffffffff16815260200190815260200160002060006101000a81548160ff0219169083151502179055506003548160010154106117305761172f8561292e565b5b5050505050565b600160003373ffffffffffffffffffffffffffffffffffffffff1673ffffffffffffffffffffffffffffffffffffffff16815260200190815260200160002060009054906101000a900460ff166117c3576040517f08c379a00000000000000000000000000000000000000000000000000000000081526004016117ba90613360565b60405180910390fd5b80600880549050811061180b576040517f08c379a0000000000000000000000000000000000000000000000000000000008152600401611802906133a0565b60405180910390fd5b8160088181548110611846577f4e487b7100000000000000000000000000000000000000000000000000000000600052603260045260246000fd5b906000526020600020906005020160030160009054906101000a900460ff16156118a5576040517f08c379a000000000000000000000000000000000000000000000000000000000815260040161189c90613440565b60405180910390fd5b826007600082815260200190815260200160002060003373ffffffffffffffffffffffffffffffffffffffff1673ffffffffffffffffffffffffffffffffffffffff16815260200190815260200160002060009054906101000a900460ff1615611944576040517f08c379a000000000000000000000000000000000000000000000000000000000815260040161193b906133c0565b60405180910390fd5b600060088581548110611980577f4e487b7100000000000000000000000000000000000000000000000000000000600052603260045260246000fd5b9060005260206000209060050201905060018160040160008282546119a59190613610565b9250508190555060016007600087815260200190815260200160002060003373ffffffffffffffffffffffffffffffffffffffff1673ffffffffffffffffffffffffffffffffffffffff16815260200190815260200160002060006101000a81548160ff021916908315150217905550843373ffffffffffffffffffffffffffffffffffffffff167f5cbe105e36805f7820e291f799d5794ff948af2a5f664e580382defb6339004160405160405180910390a35050505050565b3373ffffffffffffffffffffffffffffffffffffffff16600560009054906101000a900473ffffffffffffffffffffffffffffffffffffffff1673ffffffffffffffffffffffffffffffffffffffff1614611af0576040517f08c379a0000000000000000000000000000000000000000000000000000000008152600401611ae790613360565b60405180910390fd5b6000600880549050905060086040518060a001604052808673ffffffffffffffffffffffffffffffffffffffff1681526020018581526020018481526020016000151581526020016000815250908060018154018082558091505060019003906000526020600020906005020160009091909190915060008201518160000160006101000a81548173ffffffffffffffffffffffffffffffffffffffff021916908373ffffffffffffffffffffffffffffffffffffffff160217905550602082015181600101556040820151816002019080519060200190611bd3929190612bb9565b5060608201518160030160006101000a81548160ff0219169083151502179055506080820151816004015550508373ffffffffffffffffffffffffffffffffffffffff16813373ffffffffffffffffffffffffffffffffffffffff167fd5a05bf70715ad82a09a756320284a1b54c9ff74cd0f8cce6219e79b563fe59d8686604051611c609291906134db565b60405180910390a450505050565b60025481565b600160003373ffffffffffffffffffffffffffffffffffffffff1673ffffffffffffffffffffffffffffffffffffffff16815260200190815260200160002060009054906101000a900460ff16611d00576040517f08c379a0000000000000000000000000000000000000000000000000000000008152600401611cf790613360565b60405180910390fd5b80600a805490508110611d48576040517f08c379a0000000000000000000000000000000000000000000000000000000008152600401611d3f906132c0565b60405180910390fd5b81600a8181548110611d83577f4e487b7100000000000000000000000000000000000000000000000000000000600052603260045260246000fd5b906000526020600020906002020160000160149054906101000a900460ff1615611de2576040517f08c379a0000000000000000000000000000000000000000000000000000000008152600401611dd9906132a0565b60405180910390fd5b6000600a8481548110611e1e577f4e487b7100000000000000000000000000000000000000000000000000000000600052603260045260246000fd5b906000526020600020906002020190506009600085815260200190815260200160002060003373ffffffffffffffffffffffffffffffffffffffff1673ffffffffffffffffffffffffffffffffffffffff16815260200190815260200160002060009054906101000a900460ff16611ecb576040517f08c379a0000000000000000000000000000000000000000000000000000000008152600401611ec290613400565b60405180910390fd5b6001816001016000828254611ee09190613666565b9250508190555060006009600086815260200190815260200160002060003373ffffffffffffffffffffffffffffffffffffffff1673ffffffffffffffffffffffffffffffffffffffff16815260200190815260200160002060006101000a81548160ff02191690831515021790555050505050565b600b6020528160005260406000206020528060005260406000206000915091509054906101000a900460ff1681565b600560009054906101000a900473ffffffffffffffffffffffffffffffffffffffff1681565b3373ffffffffffffffffffffffffffffffffffffffff16600560009054906101000a900473ffffffffffffffffffffffffffffffffffffffff1673ffffffffffffffffffffffffffffffffffffffff161461203b576040517f08c379a000000000000000000000000000000000000000000000000000000000815260040161203290613360565b60405180910390fd5b806008805490508110612083576040517f08c379a000000000000000000000000000000000000000000000000000000000815260040161207a906133a0565b60405180910390fd5b81600881815481106120be577f4e487b7100000000000000000000000000000000000000000000000000000000600052603260045260246000fd5b906000526020600020906005020160030160009054906101000a900460ff161561211d576040517f08c379a000000000000000000000000000000000000000000000000000000000815260040161211490613440565b60405180910390fd5b600060088481548110612159577f4e487b7100000000000000000000000000000000000000000000000000000000600052603260045260246000fd5b9060005260206000209060050201905060025481600401541015806121eb5750600660008260000160009054906101000a900473ffffffffffffffffffffffffffffffffffffffff1673ffffffffffffffffffffffffffffffffffffffff1673ffffffffffffffffffffffffffffffffffffffff16815260200190815260200160002060009054906101000a900460ff165b61222a576040517f08c379a000000000000000000000000000000000000000000000000000000000815260040161222190613480565b60405180910390fd5b60018160030160006101000a81548160ff02191690831515021790555060008160000160009054906101000a900473ffffffffffffffffffffffffffffffffffffffff1673ffffffffffffffffffffffffffffffffffffffff1682600101548360020160405161229a91906131a0565b60006040518083038185875af1925050503d80600081146122d7576040519150601f19603f3d011682016040523d82523d6000602084013e6122dc565b606091505b5050905080612320576040517f08c379a000000000000000000000000000000000000000000000000000000000815260040161231790613340565b60405180910390fd5b843373ffffffffffffffffffffffffffffffffffffffff167f5445f318f4f5fcfb66592e68e0cc5822aa15664039bd5f0ffde24c5a8142b1ac60405160405180910390a35050505050565b600160003373ffffffffffffffffffffffffffffffffffffffff1673ffffffffffffffffffffffffffffffffffffffff16815260200190815260200160002060009054906101000a900460ff166123f7576040517f08c379a00000000000000000000000000000000000000000000000000000000081526004016123ee90613360565b60405180910390fd5b80600c80549050811061243f576040517f08c379a000000000000000000000000000000000000000000000000000000000815260040161243690613320565b60405180910390fd5b81600c818154811061247a577f4e487b7100000000000000000000000000000000000000000000000000000000600052603260045260246000fd5b906000526020600020906002020160000160149054906101000a900460ff16156124d9576040517f08c379a00000000000000000000000000000000000000000000000000000000081526004016124d090613300565b60405180910390fd5b6000600c8481548110612515577f4e487b7100000000000000000000000000000000000000000000000000000000600052603260045260246000fd5b90600052602060002090600202019050600b600085815260200190815260200160002060003373ffffffffffffffffffffffffffffffffffffffff1673ffffffffffffffffffffffffffffffffffffffff16815260200190815260200160002060009054906101000a900460ff166125c2576040517f08c379a00000000000000000000000000000000000000000000000000000000081526004016125b9906134a0565b60405180910390fd5b60018160010160008282546125d79190613666565b925050819055506000600b600086815260200190815260200160002060003373ffffffffffffffffffffffffffffffffffffffff1673ffffffffffffffffffffffffffffffffffffffff16815260200190815260200160002060006101000a81548160ff02191690831515021790555050505050565b6000818154811061265d57600080fd5b906000526020600020016000915054906101000a900473ffffffffffffffffffffffffffffffffffffffff1681565b600160003373ffffffffffffffffffffffffffffffffffffffff1673ffffffffffffffffffffffffffffffffffffffff16815260200190815260200160002060009054906101000a900460ff16612718576040517f08c379a000000000000000000000000000000000000000000000000000000000815260040161270f90613360565b60405180910390fd5b80600c805490508110612760576040517f08c379a000000000000000000000000000000000000000000000000000000000815260040161275790613320565b60405180910390fd5b81600c818154811061279b577f4e487b7100000000000000000000000000000000000000000000000000000000600052603260045260246000fd5b906000526020600020906002020160000160149054906101000a900460ff16156127fa576040517f08c379a00000000000000000000000000000000000000000000000000000000081526004016127f190613300565b60405180910390fd5b6000600c8481548110612836577f4e487b7100000000000000000000000000000000000000000000000000000000600052603260045260246000fd5b906000526020600020906002020190506004548160010154101561288f576040517f08c379a000000000000000000000000000000000000000000000000000000000815260040161288690613380565b60405180910390fd5b60018160000160146101000a81548160ff0219169083151502179055506001600660008360000160009054906101000a900473ffffffffffffffffffffffffffffffffffffffff1673ffffffffffffffffffffffffffffffffffffffff1673ffffffffffffffffffffffffffffffffffffffff16815260200190815260200160002060006101000a81548160ff02191690831515021790555050505050565b600160003373ffffffffffffffffffffffffffffffffffffffff1673ffffffffffffffffffffffffffffffffffffffff16815260200190815260200160002060009054906101000a900460ff166129ba576040517f08c379a00000000000000000000000000000000000000000000000000000000081526004016129b190613360565b60405180910390fd5b80600a805490508110612a02576040517f08c379a00000000000000000000000000000000000000000000000000000000081526004016129f9906132c0565b60405180910390fd5b81600a8181548110612a3d577f4e487b7100000000000000000000000000000000000000000000000000000000600052603260045260246000fd5b906000526020600020906002020160000160149054906101000a900460ff1615612a9c576040517f08c379a0000000000000000000000000000000000000000000000000000000008152600401612a93906132a0565b60405180910390fd5b6000600a8481548110612ad8577f4e487b7100000000000000000000000000000000000000000000000000000000600052603260045260246000fd5b9060005260206000209060020201905060035481600101541015612b31576040517f08c379a0000000000000000000000000000000000000000000000000000000008152600401612b28906133e0565b60405180910390fd5b60018160000160146101000a81548160ff0219169083151502179055508060000160009054906101000a900473ffffffffffffffffffffffffffffffffffffffff16600560006101000a81548173ffffffffffffffffffffffffffffffffffffffff021916908373ffffffffffffffffffffffffffffffffffffffff16021790555050505050565b828054612bc590613724565b90600052602060002090601f016020900481019282612be75760008555612c2e565b82601f10612c0057805160ff1916838001178555612c2e565b82800160010185558215612c2e579182015b82811115612c2d578251825591602001919060010190612c12565b5b509050612c3b9190612c3f565b5090565b5b80821115612c58576000816000905550600101612c40565b5090565b6000612c6f612c6a84613559565b613534565b905082815260208101848484011115612c8757600080fd5b612c928482856136e2565b509392505050565b600081359050612ca981613c34565b92915050565b600082601f830112612cc057600080fd5b8135612cd0848260208601612c5c565b91505092915050565b600081359050612ce881613c4b565b92915050565b600060208284031215612d0057600080fd5b6000612d0e84828501612c9a565b91505092915050565b600080600060608486031215612d2c57600080fd5b6000612d3a86828701612c9a565b9350506020612d4b86828701612cd9565b925050604084013567ffffffffffffffff811115612d6857600080fd5b612d7486828701612caf565b9150509250925092565b600060208284031215612d9057600080fd5b6000612d9e84828501612cd9565b91505092915050565b60008060408385031215612dba57600080fd5b6000612dc885828601612cd9565b9250506020612dd985828601612c9a565b9150509250929050565b6000612def8383612dfb565b60208301905092915050565b612e048161369a565b82525050565b612e138161369a565b82525050565b6000612e24826135af565b612e2e81856135d2565b9350612e398361358a565b8060005b83811015612e6a578151612e518882612de3565b9750612e5c836135c5565b925050600181019050612e3d565b5085935050505092915050565b612e80816136ac565b82525050565b6000612e91826135ba565b612e9b81856135e3565b9350612eab8185602086016136f1565b612eb481613814565b840191505092915050565b60008154612ecc81613724565b612ed681866135f4565b94506001821660008114612ef15760018114612f0257612f35565b60ff19831686528186019350612f35565b612f0b8561359a565b60005b83811015612f2d57815481890152600182019150602081019050612f0e565b838801955050505b50505092915050565b6000612f4b6023836135ff565b9150612f5682613825565b604082019050919050565b6000612f6e6021836135ff565b9150612f7982613874565b604082019050919050565b6000612f916025836135ff565b9150612f9c826138c3565b604082019050919050565b6000612fb46028836135ff565b9150612fbf82613912565b604082019050919050565b6000612fd76026836135ff565b9150612fe282613961565b604082019050919050565b6000612ffa6009836135ff565b9150613005826139b0565b602082019050919050565b600061301d600c836135ff565b9150613028826139d9565b602082019050919050565b60006130406026836135ff565b915061304b82613a02565b604082019050919050565b60006130636011836135ff565b915061306e82613a51565b602082019050919050565b60006130866014836135ff565b915061309182613a7a565b602082019050919050565b60006130a96021836135ff565b91506130b482613aa3565b604082019050919050565b60006130cc6020836135ff565b91506130d782613af2565b602082019050919050565b60006130ef6024836135ff565b91506130fa82613b1b565b604082019050919050565b60006131126013836135ff565b915061311d82613b6a565b602082019050919050565b60006131356010836135ff565b915061314082613b93565b602082019050919050565b60006131586011836135ff565b915061316382613bbc565b602082019050919050565b600061317b6021836135ff565b915061318682613be5565b604082019050919050565b61319a816136d8565b82525050565b60006131ac8284612ebf565b915081905092915050565b60006020820190506131cc6000830184612e0a565b92915050565b60006060820190506131e76000830186612e0a565b6131f46020830185612e77565b6132016040830184613191565b949350505050565b600060a08201905061321e6000830188612e0a565b61322b6020830187613191565b818103604083015261323d8186612e86565b905061324c6060830185612e77565b6132596080830184613191565b9695505050505050565b6000602082019050818103600083015261327d8184612e19565b905092915050565b600060208201905061329a6000830184612e77565b92915050565b600060208201905081810360008301526132b981612f3e565b9050919050565b600060208201905081810360008301526132d981612f61565b9050919050565b600060208201905081810360008301526132f981612f84565b9050919050565b6000602082019050818103600083015261331981612fa7565b9050919050565b6000602082019050818103600083015261333981612fca565b9050919050565b6000602082019050818103600083015261335981612fed565b9050919050565b6000602082019050818103600083015261337981613010565b9050919050565b6000602082019050818103600083015261339981613033565b9050919050565b600060208201905081810360008301526133b981613056565b9050919050565b600060208201905081810360008301526133d981613079565b9050919050565b600060208201905081810360008301526133f98161309c565b9050919050565b60006020820190508181036000830152613419816130bf565b9050919050565b60006020820190508181036000830152613439816130e2565b9050919050565b6000602082019050818103600083015261345981613105565b9050919050565b6000602082019050818103600083015261347981613128565b9050919050565b600060208201905081810360008301526134998161314b565b9050919050565b600060208201905081810360008301526134b98161316e565b9050919050565b60006020820190506134d56000830184613191565b92915050565b60006040820190506134f06000830185613191565b81810360208301526135028184612e86565b90509392505050565b60006040820190506135206000830185613191565b61352d6020830184613191565b9392505050565b600061353e61354f565b905061354a8282613756565b919050565b6000604051905090565b600067ffffffffffffffff821115613574576135736137e5565b5b61357d82613814565b9050602081019050919050565b6000819050602082019050919050565b60008190508160005260206000209050919050565b600081519050919050565b600081519050919050565b6000602082019050919050565b600082825260208201905092915050565b600082825260208201905092915050565b600081905092915050565b600082825260208201905092915050565b600061361b826136d8565b9150613626836136d8565b9250827fffffffffffffffffffffffffffffffffffffffffffffffffffffffffffffffff0382111561365b5761365a613787565b5b828201905092915050565b6000613671826136d8565b915061367c836136d8565b92508282101561368f5761368e613787565b5b828203905092915050565b60006136a5826136b8565b9050919050565b60008115159050919050565b600073ffffffffffffffffffffffffffffffffffffffff82169050919050565b6000819050919050565b82818337600083830152505050565b60005b8381101561370f5780820151818401526020810190506136f4565b8381111561371e576000848401525b50505050565b6000600282049050600182168061373c57607f821691505b602082108114156137505761374f6137b6565b5b50919050565b61375f82613814565b810181811067ffffffffffffffff8211171561377e5761377d6137e5565b5b80604052505050565b7f4e487b7100000000000000000000000000000000000000000000000000000000600052601160045260246000fd5b7f4e487b7100000000000000000000000000000000000000000000000000000000600052602260045260246000fd5b7f4e487b7100000000000000000000000000000000000000000000000000000000600052604160045260246000fd5b6000601f19601f8301169050919050565b7f6368616e6765207370656e6465722072657120616c726561647920657865637560008201527f7465640000000000000000000000000000000000000000000000000000000000602082015250565b7f6368616e6765207370656e6465722072657120646f6573206e6f74206578697360008201527f7400000000000000000000000000000000000000000000000000000000000000602082015250565b7f6164642074727573746564206164647265737320616c726561647920636f6e6660008201527f69726d6564000000000000000000000000000000000000000000000000000000602082015250565b7f616464207472757374656420616464726573732072657120616c72656164792060008201527f6578656375746564000000000000000000000000000000000000000000000000602082015250565b7f616464207472757374656420616464726573732072657120646f6573206e6f7460008201527f2065786973740000000000000000000000000000000000000000000000000000602082015250565b7f7478206661696c65640000000000000000000000000000000000000000000000600082015250565b7f6e6f7420677561726469616e0000000000000000000000000000000000000000600082015250565b7f63616e6e6f74206578656375746520616464207472757374656420616464726560008201527f7373207265710000000000000000000000000000000000000000000000000000602082015250565b7f747820646f6573206e6f74206578697374000000000000000000000000000000600082015250565b7f747820616c726561647920636f6e6669726d6564000000000000000000000000600082015250565b7f63616e6e6f742065786563757465206368616e6765207370656e64657220726560008201527f7100000000000000000000000000000000000000000000000000000000000000602082015250565b7f6368616e6765207370656e64657220726571206e6f7420636f6e6669726d6564600082015250565b7f6368616e6765207370656e6465722072657120616c726561647920636f6e666960008201527f726d656400000000000000000000000000000000000000000000000000000000602082015250565b7f747820616c726561647920657865637574656400000000000000000000000000600082015250565b7f7478206e6f7420636f6e6669726d656400000000000000000000000000000000600082015250565b7f63616e6e6f742065786563757465207478000000000000000000000000000000600082015250565b7f61646420747275737465642061646472657373206e6f7420636f6e6669726d6560008201527f6400000000000000000000000000000000000000000000000000000000000000602082015250565b613c3d8161369a565b8114613c4857600080fd5b50565b613c54816136d8565b8114613c5f57600080fd5b5056fea26469706673582212200cc5da869ddf1c5e2bfe003efbcc05e25d72b34075c2825a6e9cfcb0ec9c0bfd64736f6c63430008030033",
  "immutableReferences": {},
  "source": "// SPDX-License-Identifier: MIT\npragma solidity ^0.8.3;\n\n/**\nProposed solutions for vaulting:\n- 2 wallets: 1 saving, 1 checking (daily uses), the latter contains few funds and doesn't neeed guardian approval for transaction execution\n- The savings account by default needs N confirmations for executing a transactions, but has the possibility to have trusted/whitelisted recipients that do not\n  need any guardian approval. Adding an address to the trusted addresses list need the approval by guardians\n- Daily limit could be implemented by making use of block.timestamp\n\nProposed solution for privacy:\n- hashing guardians addresses\n- merkle proofs\n\nFor increased security and enforcing cooperation between owner and guardians\n- User secret data hash needed to change spender key, and it could be biometric secret data\n */\n\ncontract SocialRecoveryWalletNew {\n    event Deposit(address indexed sender, uint amount, uint balance);\n    event SubmitTransaction(\n        address indexed guardian,\n        uint indexed txIndex,\n        address indexed to,\n        uint value,\n        bytes data\n    );\n    event ConfirmTransaction(address indexed guardian, uint indexed txIndex);\n    event RevokeConfirmation(address indexed guardian, uint indexed txIndex);\n    event ExecuteTransaction(address indexed guardian, uint indexed txIndex);\n\n    address[] public guardians;\n    mapping(address => bool) public isGuardian;\n    uint public numConfirmationsRequired; // Transactions\n    uint public numConfirmationsRequiredToChangeSpender;\n    uint public numConfirmationsRequiredToAddTrustedAddress;\n\n    address public spender; // Who can spend the funds of the Social Recovery Wallet\n\n    //address[] public trustedAddresses;\n    mapping(address => bool) public isTrustedAddress;\n\n    struct Transaction {\n        address to;\n        uint value;\n        bytes data;\n        bool executed;\n        uint numConfirmations;\n    }\n\n    struct ChangeSpenderRequest {\n      address newSpender;\n      bool executed;\n      uint numConfirmations;\n    }\n\n    struct AddTrustedAddressRequest {\n      address newTrustedAddress;\n      bool executed;\n      uint numConfirmations;\n    }\n\n    // mapping from tx index => guardian => bool\n    mapping(uint => mapping(address => bool)) public isConfirmed; // regards TRANSACTIONS\n\n    Transaction[] public transactions;\n\n    // mapping from change spender req index => guardian => bool\n    mapping(uint => mapping(address => bool)) public isChangeSpenderRequestConfirmed; // regards CHANGE SPENDER REQUESTS\n\n    ChangeSpenderRequest[] public changeSpenderRequests;\n\n    // mapping from add trusted addr req index => guardian => bool\n    mapping(uint => mapping(address => bool)) public isAddTrustedAddressRequestConfirmed; // regards CHANGE SPENDER REQUESTS\n\n    AddTrustedAddressRequest[] public addTrustedAddressRequests;\n\n    modifier onlyGuardian() {\n        require(isGuardian[msg.sender], \"not guardian\");\n        _;\n    }\n\n    modifier onlySpender() {\n        require(spender == msg.sender, \"not guardian\");\n        _;\n    }\n\n    // modifiers regarding TRANSACTIONS\n    modifier txExists(uint _txIndex) {\n        require(_txIndex < transactions.length, \"tx does not exist\");\n        _;\n    }\n\n    modifier notExecuted(uint _txIndex) {\n        require(!transactions[_txIndex].executed, \"tx already executed\");\n        _;\n    }\n\n    modifier notConfirmed(uint _txIndex) {\n        require(!isConfirmed[_txIndex][msg.sender], \"tx already confirmed\");\n        _;\n    }\n\n    // modifiers regarding CHANGE SPENDER REQs\n    modifier changeSpenderRequestExists(uint _reqIndex) {\n        require(_reqIndex < changeSpenderRequests.length, \"change spender req does not exist\");\n        _;\n    }\n\n    modifier changeSpenderRequestNotExecuted(uint _reqIndex) {\n        require(!changeSpenderRequests[_reqIndex].executed, \"change spender req already executed\");\n        _;\n    }\n\n    modifier changeSpenderRequestNotConfirmed(uint _reqIndex) {\n        require(!isChangeSpenderRequestConfirmed[_reqIndex][msg.sender], \"change spender req already confirmed\");\n        _;\n    }\n\n    // modifiers regarding ADD TRUSTED ADDRESS REQs\n    modifier addTrustedAddressRequestExists(uint _reqIndex) {\n        require(_reqIndex < addTrustedAddressRequests.length, \"add trusted address req does not exist\");\n        _;\n    }\n\n    modifier addTrustedAddressRequestNotExecuted(uint _reqIndex) {\n        require(!addTrustedAddressRequests[_reqIndex].executed, \"add trusted address req already executed\");\n        _;\n    }\n\n    modifier addTrustedAddressRequestNotConfirmed(uint _reqIndex) {\n        require(!isAddTrustedAddressRequestConfirmed[_reqIndex][msg.sender], \"add trusted address already confirmed\");\n        _;\n    }\n\n    constructor(address _spender, address[] memory _guardians, uint _numConfirmationsRequired, uint _numConfirmationsRequiredToChangeSpender, uint _numConfirmationsRequiredToAddTrustedAddress) {\n        require(_guardians.length > 0, \"guardians required\");\n        require(\n            _numConfirmationsRequired >= 0 &&\n                _numConfirmationsRequired <= _guardians.length,\n            \"invalid number of required confirmations\"\n        );\n\n        for (uint i = 0; i < _guardians.length; i++) {\n            address guardian = _guardians[i];\n\n            require(guardian != address(0), \"invalid guardian\");\n            require(!isGuardian[guardian], \"guardian not unique\");\n\n            isGuardian[guardian] = true;\n            guardians.push(guardian);\n        }\n\n        spender = _spender;\n        numConfirmationsRequired = _numConfirmationsRequired;\n        numConfirmationsRequiredToChangeSpender = _numConfirmationsRequiredToChangeSpender;\n        numConfirmationsRequiredToAddTrustedAddress = _numConfirmationsRequiredToAddTrustedAddress;\n    }\n\n    receive() external payable {\n        emit Deposit(msg.sender, msg.value, address(this).balance);\n    }\n\n    // Functions related to TRANSACTIONS\n    function submitTransaction(\n        address _to,\n        uint _value,\n        bytes memory _data\n    ) public onlySpender {\n        uint txIndex = transactions.length;\n\n        transactions.push(\n            Transaction({\n                to: _to,\n                value: _value,\n                data: _data,\n                executed: false,\n                numConfirmations: 0\n            })\n        );\n\n        emit SubmitTransaction(msg.sender, txIndex, _to, _value, _data);\n    }\n\n    function confirmTransaction(uint _txIndex)\n        public\n        onlyGuardian\n        txExists(_txIndex)\n        notExecuted(_txIndex)\n        notConfirmed(_txIndex)\n    {\n        Transaction storage transaction = transactions[_txIndex];\n        transaction.numConfirmations += 1;\n        isConfirmed[_txIndex][msg.sender] = true;\n\n        emit ConfirmTransaction(msg.sender, _txIndex);\n\n        //if(transaction.numConfirmations >= numConfirmationsRequired) {\n          // should this be automatic as soon as the min number of confirmations is reached, or should it be triggered by spender?\n          //executeTransaction(_txIndex);\n        //}\n    }\n\n    // TODO only spender? who should call this?\n\n    \n    /*function executeTransaction(uint _txIndex) \n        public \n        onlyGuardian \n        txExists(_txIndex)\n        notExecuted(_txIndex)\n    {\n        Transaction storage transaction = transactions[_txIndex];\n\n        require(\n            transaction.numConfirmations >= numConfirmationsRequired,\n            \"cannot execute tx\"\n        );\n\n        transaction.executed = true;\n\n        (bool success, ) = transaction.to.call{value: transaction.value}(\n            transaction.data\n        );\n        require(success, \"tx failed\");\n\n        emit ExecuteTransaction(msg.sender, _txIndex);\n    }*/\n\n    // TMP\n    function executeTransaction(uint _txIndex) \n        public \n        onlySpender \n        txExists(_txIndex)\n        notExecuted(_txIndex)\n    {\n        Transaction storage transaction = transactions[_txIndex];\n\n        require(\n            transaction.numConfirmations >= numConfirmationsRequired || isTrustedAddress[transaction.to],\n            \"cannot execute tx\"\n        );\n\n        transaction.executed = true;\n\n        (bool success, ) = transaction.to.call{value: transaction.value}(\n            transaction.data\n        );\n        require(success, \"tx failed\");\n\n        emit ExecuteTransaction(msg.sender, _txIndex);\n    }\n\n    function revokeConfirmation(uint _txIndex)\n        public\n        onlyGuardian\n        txExists(_txIndex)\n        notExecuted(_txIndex)\n    {\n        Transaction storage transaction = transactions[_txIndex];\n\n        require(isConfirmed[_txIndex][msg.sender], \"tx not confirmed\");\n\n        transaction.numConfirmations -= 1;\n        isConfirmed[_txIndex][msg.sender] = false;\n\n        emit RevokeConfirmation(msg.sender, _txIndex);\n    }\n\n    // Function related to CHANGE SPENDER REQUESTS\n\n    function submitChangeSpenderRequest(\n        address _newSpender\n    ) public onlyGuardian {\n        uint reqIndex = changeSpenderRequests.length;\n\n        changeSpenderRequests.push(\n            ChangeSpenderRequest({\n                newSpender: _newSpender,\n                executed: false,\n                numConfirmations: 0\n            })\n        );\n        \n        //isChangeSpenderRequestConfirmed[_reqIndex][msg.sender] = true;\n        \n        confirmChangeSpenderRequest(reqIndex);\n\n        //emit SubmitTransaction(msg.sender, txIndex, _to, _value, _data);\n    }\n\n    function confirmChangeSpenderRequest(uint _reqIndex)\n        public\n        onlyGuardian\n        changeSpenderRequestExists(_reqIndex)\n        changeSpenderRequestNotExecuted(_reqIndex)\n        changeSpenderRequestNotConfirmed(_reqIndex)\n    {\n        ChangeSpenderRequest storage req = changeSpenderRequests[_reqIndex];\n        req.numConfirmations += 1;\n        isChangeSpenderRequestConfirmed[_reqIndex][msg.sender] = true;\n        \n        if(req.numConfirmations >= numConfirmationsRequiredToChangeSpender) {\n            executeChangeSpenderRequest(_reqIndex);\n        }\n\n        //emit ConfirmTransaction(msg.sender, _txIndex);\n    }\n\n    function executeChangeSpenderRequest(uint _reqIndex) \n        private \n        onlyGuardian \n        changeSpenderRequestExists(_reqIndex)\n        changeSpenderRequestNotExecuted(_reqIndex)\n    {\n        ChangeSpenderRequest storage req = changeSpenderRequests[_reqIndex];\n\n        require(\n            req.numConfirmations >= numConfirmationsRequiredToChangeSpender,\n            \"cannot execute change spender req\"\n        );\n\n        req.executed = true;\n\n        spender = req.newSpender;\n\n        //emit ExecuteTransaction(msg.sender, _txIndex);\n    }\n\n    function revokeChangeSpenderRequestConfirmation(uint _reqIndex)\n        public\n        onlyGuardian\n        changeSpenderRequestExists(_reqIndex)\n        changeSpenderRequestNotExecuted(_reqIndex)\n    {\n        ChangeSpenderRequest storage req = changeSpenderRequests[_reqIndex];\n\n        require(isChangeSpenderRequestConfirmed[_reqIndex][msg.sender], \"change spender req not confirmed\");\n\n        req.numConfirmations -= 1;\n        isChangeSpenderRequestConfirmed[_reqIndex][msg.sender] = false;\n\n       //emit RevokeConfirmation(msg.sender, _reqIndex);\n    }\n\n    // Functions related to ADD TRUSTED ADDRESSES REQUESTS\n\n    function submitAddTrustedAddressRequest(\n        address _newTrustedAddress\n    ) public onlySpender {\n        uint reqIndex = addTrustedAddressRequests.length;\n\n        addTrustedAddressRequests.push(\n            AddTrustedAddressRequest({\n                newTrustedAddress: _newTrustedAddress,\n                executed: false,\n                numConfirmations: 0\n            })\n        );\n        \n        //isChangeSpenderRequestConfirmed[_reqIndex][msg.sender] = true;\n        \n        //emit SubmitTransaction(msg.sender, txIndex, _to, _value, _data);\n    }\n\n    function confirmAddTrustedAddressRequest(uint _reqIndex)\n        public\n        onlyGuardian\n        addTrustedAddressRequestExists(_reqIndex)\n        addTrustedAddressRequestNotExecuted(_reqIndex)\n        addTrustedAddressRequestNotConfirmed(_reqIndex)\n    {\n        AddTrustedAddressRequest storage req = addTrustedAddressRequests[_reqIndex];\n        req.numConfirmations += 1;\n        isAddTrustedAddressRequestConfirmed[_reqIndex][msg.sender] = true;\n        \n        if(req.numConfirmations >= numConfirmationsRequiredToAddTrustedAddress) {\n            executeAddTrustedAddressRequest(_reqIndex);\n        }\n\n        //emit ConfirmTransaction(msg.sender, _txIndex);\n    }\n\n    function executeAddTrustedAddressRequest(uint _reqIndex) \n        private \n        onlyGuardian \n        addTrustedAddressRequestExists(_reqIndex)\n        addTrustedAddressRequestNotExecuted(_reqIndex)\n    {\n        AddTrustedAddressRequest storage req = addTrustedAddressRequests[_reqIndex];\n\n        require(\n            req.numConfirmations >= numConfirmationsRequiredToAddTrustedAddress,\n            \"cannot execute add trusted address req\"\n        );\n\n        req.executed = true;\n\n        //trustedAddresses.push(req.newTrustedAddress);\n        isTrustedAddress[req.newTrustedAddress] = true; // TODO: add function to untrust an address\n        \n        //emit ExecuteTransaction(msg.sender, _txIndex);\n    }\n\n    function removeTrustedAddress(address _trusted) \n        private \n        onlySpender \n    {\n        isTrustedAddress[_trusted] = false;\n    }\n\n\n    function revokeAddTrustedAddressRequestConfirmation(uint _reqIndex)\n        public\n        onlyGuardian\n        addTrustedAddressRequestExists(_reqIndex)\n        addTrustedAddressRequestNotExecuted(_reqIndex)\n    {\n        AddTrustedAddressRequest storage req = addTrustedAddressRequests[_reqIndex];\n\n        require(isAddTrustedAddressRequestConfirmed[_reqIndex][msg.sender], \"add trusted address not confirmed\");\n\n        req.numConfirmations -= 1;\n        isAddTrustedAddressRequestConfirmed[_reqIndex][msg.sender] = false;\n\n       //emit RevokeConfirmation(msg.sender, _reqIndex);\n    }\n    \n\n    ///////////\n\n    function getGuardians() public view returns (address[] memory) {\n        return guardians;\n    }\n\n    function getTransactionCount() public view returns (uint) {\n        return transactions.length;\n    }\n\n    function getTransaction(uint _txIndex)\n        public\n        view\n        returns (\n            address to,\n            uint value,\n            bytes memory data,\n            bool executed,\n            uint numConfirmations\n        )\n    {\n        Transaction storage transaction = transactions[_txIndex];\n\n        return (\n            transaction.to,\n            transaction.value,\n            transaction.data,\n            transaction.executed,\n            transaction.numConfirmations\n        );\n    }\n}\n",
  "sourcePath": "/Users/cosimosguanci/Desktop/SocialRecoveryWallet/contracts/SocialRecoveryWalletNewCompiler.sol",
  "compiler": {
    "name": "solc",
    "version": "0.8.3+commit.8d00100c.Emscripten.clang"
  },
  "schemaVersion": "3.4.3",
  "updatedAt": "2021-11-06T23:27:36.446Z",
  "devdoc": {
    "kind": "dev",
    "methods": {},
    "version": 1
  },
  "userdoc": {
    "kind": "user",
    "methods": {},
    "notice": "Proposed solutions for vaulting: - 2 wallets: 1 saving, 1 checking (daily uses), the latter contains few funds and doesn't neeed guardian approval for transaction execution - The savings account by default needs N confirmations for executing a transactions, but has the possibility to have trusted/whitelisted recipients that do not need any guardian approval. Adding an address to the trusted addresses list need the approval by guardians - Daily limit could be implemented by making use of block.timestamp Proposed solution for privacy: - hashing guardians addresses - merkle proofs For increased security and enforcing cooperation between owner and guardians - User secret data hash needed to change spender key, and it could be biometric secret data",
    "version": 1
  }
}