{
  "contractName": "SocialRecoveryWallet",
  "abi": [
    {
      "inputs": [
        {
          "internalType": "address",
          "name": "_spender",
          "type": "address"
        },
        {
          "internalType": "bytes32[]",
          "name": "_guardians",
          "type": "bytes32[]"
        },
        {
          "internalType": "address[]",
          "name": "_trustedAddresses",
          "type": "address[]"
        },
        {
          "internalType": "uint256",
          "name": "_numConfirmationsRequired",
          "type": "uint256"
        },
        {
          "internalType": "uint256",
          "name": "_numConfirmationsRequiredToChangeSpender",
          "type": "uint256"
        },
        {
          "internalType": "uint256",
          "name": "_numConfirmationsRequiredToAddTrustedAddress",
          "type": "uint256"
        }
      ],
      "stateMutability": "nonpayable",
      "type": "constructor"
    },
    {
      "anonymous": false,
      "inputs": [
        {
          "indexed": true,
          "internalType": "address",
          "name": "guardian",
          "type": "address"
        },
        {
          "indexed": true,
          "internalType": "uint256",
          "name": "reqIndex",
          "type": "uint256"
        },
        {
          "indexed": true,
          "internalType": "address",
          "name": "newTrustedAddress",
          "type": "address"
        }
      ],
      "name": "ConfirmAddTrusted",
      "type": "event"
    },
    {
      "anonymous": false,
      "inputs": [
        {
          "indexed": true,
          "internalType": "address",
          "name": "guardian",
          "type": "address"
        },
        {
          "indexed": true,
          "internalType": "uint256",
          "name": "reqIndex",
          "type": "uint256"
        },
        {
          "indexed": true,
          "internalType": "address",
          "name": "newSpender",
          "type": "address"
        }
      ],
      "name": "ConfirmChangeSpender",
      "type": "event"
    },
    {
      "anonymous": false,
      "inputs": [
        {
          "indexed": true,
          "internalType": "address",
          "name": "guardian",
          "type": "address"
        },
        {
          "indexed": true,
          "internalType": "uint256",
          "name": "txIndex",
          "type": "uint256"
        }
      ],
      "name": "ConfirmTransaction",
      "type": "event"
    },
    {
      "anonymous": false,
      "inputs": [
        {
          "indexed": true,
          "internalType": "address",
          "name": "sender",
          "type": "address"
        },
        {
          "indexed": false,
          "internalType": "uint256",
          "name": "amount",
          "type": "uint256"
        },
        {
          "indexed": false,
          "internalType": "uint256",
          "name": "balance",
          "type": "uint256"
        }
      ],
      "name": "Deposit",
      "type": "event"
    },
    {
      "anonymous": false,
      "inputs": [
        {
          "indexed": true,
          "internalType": "uint256",
          "name": "reqIndex",
          "type": "uint256"
        },
        {
          "indexed": true,
          "internalType": "address",
          "name": "newTrustedAddress",
          "type": "address"
        }
      ],
      "name": "ExecuteAddTrusted",
      "type": "event"
    },
    {
      "anonymous": false,
      "inputs": [
        {
          "indexed": true,
          "internalType": "uint256",
          "name": "reqIndex",
          "type": "uint256"
        },
        {
          "indexed": true,
          "internalType": "address",
          "name": "newSpender",
          "type": "address"
        }
      ],
      "name": "ExecuteChangeSpender",
      "type": "event"
    },
    {
      "anonymous": false,
      "inputs": [
        {
          "indexed": true,
          "internalType": "address",
          "name": "spender",
          "type": "address"
        },
        {
          "indexed": true,
          "internalType": "uint256",
          "name": "txIndex",
          "type": "uint256"
        }
      ],
      "name": "ExecuteTransaction",
      "type": "event"
    },
    {
      "anonymous": false,
      "inputs": [
        {
          "indexed": true,
          "internalType": "address",
          "name": "spender",
          "type": "address"
        },
        {
          "indexed": true,
          "internalType": "address",
          "name": "removedTrusted",
          "type": "address"
        }
      ],
      "name": "RemoveTrustedAddress",
      "type": "event"
    },
    {
      "anonymous": false,
      "inputs": [
        {
          "indexed": true,
          "internalType": "address",
          "name": "guardian",
          "type": "address"
        },
        {
          "indexed": true,
          "internalType": "uint256",
          "name": "reqIndex",
          "type": "uint256"
        },
        {
          "indexed": true,
          "internalType": "address",
          "name": "newTrustedAddress",
          "type": "address"
        }
      ],
      "name": "RevokeAddTrusted",
      "type": "event"
    },
    {
      "anonymous": false,
      "inputs": [
        {
          "indexed": true,
          "internalType": "address",
          "name": "guardian",
          "type": "address"
        },
        {
          "indexed": true,
          "internalType": "uint256",
          "name": "reqIndex",
          "type": "uint256"
        },
        {
          "indexed": true,
          "internalType": "address",
          "name": "newSpender",
          "type": "address"
        }
      ],
      "name": "RevokeChangeSpender",
      "type": "event"
    },
    {
      "anonymous": false,
      "inputs": [
        {
          "indexed": true,
          "internalType": "address",
          "name": "guardian",
          "type": "address"
        },
        {
          "indexed": true,
          "internalType": "uint256",
          "name": "txIndex",
          "type": "uint256"
        }
      ],
      "name": "RevokeTxConfirmation",
      "type": "event"
    },
    {
      "anonymous": false,
      "inputs": [
        {
          "indexed": true,
          "internalType": "address",
          "name": "spender",
          "type": "address"
        },
        {
          "indexed": true,
          "internalType": "uint256",
          "name": "reqIndex",
          "type": "uint256"
        },
        {
          "indexed": true,
          "internalType": "address",
          "name": "newTrustedAddress",
          "type": "address"
        }
      ],
      "name": "SubmitAddTrusted",
      "type": "event"
    },
    {
      "anonymous": false,
      "inputs": [
        {
          "indexed": true,
          "internalType": "address",
          "name": "guardian",
          "type": "address"
        },
        {
          "indexed": true,
          "internalType": "uint256",
          "name": "reqIndex",
          "type": "uint256"
        },
        {
          "indexed": true,
          "internalType": "address",
          "name": "newSpender",
          "type": "address"
        }
      ],
      "name": "SubmitChangeSpender",
      "type": "event"
    },
    {
      "anonymous": false,
      "inputs": [
        {
          "indexed": true,
          "internalType": "address",
          "name": "spender",
          "type": "address"
        },
        {
          "indexed": true,
          "internalType": "uint256",
          "name": "txIndex",
          "type": "uint256"
        },
        {
          "indexed": true,
          "internalType": "address",
          "name": "to",
          "type": "address"
        },
        {
          "indexed": false,
          "internalType": "uint256",
          "name": "value",
          "type": "uint256"
        },
        {
          "indexed": false,
          "internalType": "bytes",
          "name": "data",
          "type": "bytes"
        }
      ],
      "name": "SubmitTransaction",
      "type": "event"
    },
    {
      "inputs": [
        {
          "internalType": "uint256",
          "name": "",
          "type": "uint256"
        }
      ],
      "name": "addTrustedAddressRequests",
      "outputs": [
        {
          "internalType": "address",
          "name": "newTrustedAddress",
          "type": "address"
        },
        {
          "internalType": "bool",
          "name": "executed",
          "type": "bool"
        },
        {
          "internalType": "uint256",
          "name": "numConfirmations",
          "type": "uint256"
        }
      ],
      "stateMutability": "view",
      "type": "function"
    },
    {
      "inputs": [
        {
          "internalType": "uint256",
          "name": "",
          "type": "uint256"
        }
      ],
      "name": "changeSpenderRequests",
      "outputs": [
        {
          "internalType": "address",
          "name": "newSpender",
          "type": "address"
        },
        {
          "internalType": "bool",
          "name": "executed",
          "type": "bool"
        },
        {
          "internalType": "uint256",
          "name": "numConfirmations",
          "type": "uint256"
        }
      ],
      "stateMutability": "view",
      "type": "function"
    },
    {
      "inputs": [
        {
          "internalType": "uint256",
          "name": "",
          "type": "uint256"
        },
        {
          "internalType": "address",
          "name": "",
          "type": "address"
        }
      ],
      "name": "isAddTrustedAddressRequestConfirmed",
      "outputs": [
        {
          "internalType": "bool",
          "name": "",
          "type": "bool"
        }
      ],
      "stateMutability": "view",
      "type": "function"
    },
    {
      "inputs": [
        {
          "internalType": "uint256",
          "name": "",
          "type": "uint256"
        },
        {
          "internalType": "address",
          "name": "",
          "type": "address"
        }
      ],
      "name": "isChangeSpenderRequestConfirmed",
      "outputs": [
        {
          "internalType": "bool",
          "name": "",
          "type": "bool"
        }
      ],
      "stateMutability": "view",
      "type": "function"
    },
    {
      "inputs": [
        {
          "internalType": "uint256",
          "name": "",
          "type": "uint256"
        },
        {
          "internalType": "address",
          "name": "",
          "type": "address"
        }
      ],
      "name": "isConfirmed",
      "outputs": [
        {
          "internalType": "bool",
          "name": "",
          "type": "bool"
        }
      ],
      "stateMutability": "view",
      "type": "function"
    },
    {
      "inputs": [
        {
          "internalType": "bytes32",
          "name": "",
          "type": "bytes32"
        }
      ],
      "name": "isGuardian",
      "outputs": [
        {
          "internalType": "bool",
          "name": "",
          "type": "bool"
        }
      ],
      "stateMutability": "view",
      "type": "function"
    },
    {
      "inputs": [
        {
          "internalType": "address",
          "name": "",
          "type": "address"
        }
      ],
      "name": "isTrustedAddress",
      "outputs": [
        {
          "internalType": "bool",
          "name": "",
          "type": "bool"
        }
      ],
      "stateMutability": "view",
      "type": "function"
    },
    {
      "inputs": [],
      "name": "numConfirmationsRequired",
      "outputs": [
        {
          "internalType": "uint256",
          "name": "",
          "type": "uint256"
        }
      ],
      "stateMutability": "view",
      "type": "function"
    },
    {
      "inputs": [],
      "name": "numConfirmationsRequiredToAddTrustedAddress",
      "outputs": [
        {
          "internalType": "uint256",
          "name": "",
          "type": "uint256"
        }
      ],
      "stateMutability": "view",
      "type": "function"
    },
    {
      "inputs": [],
      "name": "numConfirmationsRequiredToChangeSpender",
      "outputs": [
        {
          "internalType": "uint256",
          "name": "",
          "type": "uint256"
        }
      ],
      "stateMutability": "view",
      "type": "function"
    },
    {
      "inputs": [],
      "name": "spender",
      "outputs": [
        {
          "internalType": "address",
          "name": "",
          "type": "address"
        }
      ],
      "stateMutability": "view",
      "type": "function"
    },
    {
      "inputs": [
        {
          "internalType": "uint256",
          "name": "",
          "type": "uint256"
        }
      ],
      "name": "transactions",
      "outputs": [
        {
          "internalType": "address",
          "name": "to",
          "type": "address"
        },
        {
          "internalType": "uint256",
          "name": "value",
          "type": "uint256"
        },
        {
          "internalType": "bytes",
          "name": "data",
          "type": "bytes"
        },
        {
          "internalType": "bool",
          "name": "executed",
          "type": "bool"
        },
        {
          "internalType": "uint256",
          "name": "numConfirmations",
          "type": "uint256"
        }
      ],
      "stateMutability": "view",
      "type": "function"
    },
    {
      "stateMutability": "payable",
      "type": "receive"
    },
    {
      "inputs": [
        {
          "internalType": "address",
          "name": "_to",
          "type": "address"
        },
        {
          "internalType": "uint256",
          "name": "_value",
          "type": "uint256"
        },
        {
          "internalType": "bytes",
          "name": "_data",
          "type": "bytes"
        }
      ],
      "name": "submitTransaction",
      "outputs": [],
      "stateMutability": "nonpayable",
      "type": "function"
    },
    {
      "inputs": [
        {
          "internalType": "uint256",
          "name": "_txIndex",
          "type": "uint256"
        }
      ],
      "name": "confirmTransaction",
      "outputs": [],
      "stateMutability": "nonpayable",
      "type": "function"
    },
    {
      "inputs": [
        {
          "internalType": "uint256",
          "name": "_txIndex",
          "type": "uint256"
        }
      ],
      "name": "executeTransaction",
      "outputs": [],
      "stateMutability": "nonpayable",
      "type": "function"
    },
    {
      "inputs": [
        {
          "internalType": "uint256",
          "name": "_txIndex",
          "type": "uint256"
        }
      ],
      "name": "revokeConfirmation",
      "outputs": [],
      "stateMutability": "nonpayable",
      "type": "function"
    },
    {
      "inputs": [
        {
          "internalType": "address",
          "name": "_newSpender",
          "type": "address"
        }
      ],
      "name": "submitChangeSpenderRequest",
      "outputs": [],
      "stateMutability": "nonpayable",
      "type": "function"
    },
    {
      "inputs": [
        {
          "internalType": "uint256",
          "name": "_reqIndex",
          "type": "uint256"
        }
      ],
      "name": "confirmChangeSpenderRequest",
      "outputs": [],
      "stateMutability": "nonpayable",
      "type": "function"
    },
    {
      "inputs": [
        {
          "internalType": "uint256",
          "name": "_reqIndex",
          "type": "uint256"
        }
      ],
      "name": "revokeChangeSpenderRequestConfirmation",
      "outputs": [],
      "stateMutability": "nonpayable",
      "type": "function"
    },
    {
      "inputs": [
        {
          "internalType": "address",
          "name": "_newTrustedAddress",
          "type": "address"
        }
      ],
      "name": "submitAddTrustedAddressRequest",
      "outputs": [],
      "stateMutability": "nonpayable",
      "type": "function"
    },
    {
      "inputs": [
        {
          "internalType": "uint256",
          "name": "_reqIndex",
          "type": "uint256"
        }
      ],
      "name": "confirmAddTrustedAddressRequest",
      "outputs": [],
      "stateMutability": "nonpayable",
      "type": "function"
    },
    {
      "inputs": [
        {
          "internalType": "address",
          "name": "_trusted",
          "type": "address"
        }
      ],
      "name": "removeTrustedAddress",
      "outputs": [],
      "stateMutability": "nonpayable",
      "type": "function"
    },
    {
      "inputs": [
        {
          "internalType": "uint256",
          "name": "_reqIndex",
          "type": "uint256"
        }
      ],
      "name": "revokeAddTrustedAddressRequestConfirmation",
      "outputs": [],
      "stateMutability": "nonpayable",
      "type": "function"
    },
    {
      "inputs": [],
      "name": "getTransactionCount",
      "outputs": [
        {
          "internalType": "uint256",
          "name": "",
          "type": "uint256"
        }
      ],
      "stateMutability": "view",
      "type": "function"
    },
    {
      "inputs": [
        {
          "internalType": "uint256",
          "name": "_txIndex",
          "type": "uint256"
        }
      ],
      "name": "getTransaction",
      "outputs": [
        {
          "internalType": "address",
          "name": "to",
          "type": "address"
        },
        {
          "internalType": "uint256",
          "name": "value",
          "type": "uint256"
        },
        {
          "internalType": "bytes",
          "name": "data",
          "type": "bytes"
        },
        {
          "internalType": "bool",
          "name": "executed",
          "type": "bool"
        },
        {
          "internalType": "uint256",
          "name": "numConfirmations",
          "type": "uint256"
        }
      ],
      "stateMutability": "view",
      "type": "function"
    }
  ],
  "bytecode": "0x60806040523480156200001157600080fd5b50604051620049c2380380620049c28339818101604052810190620000379190620004ac565b60008551116200007e576040517f08c379a000000000000000000000000000000000000000000000000000000000815260040162000075906200060b565b60405180910390fd5b6000831015801562000091575084518311155b80156200009f575060008210155b8015620000ad575084518211155b8015620000bb575060008110155b8015620000c9575084518111155b6200010b576040517f08c379a000000000000000000000000000000000000000000000000000000000815260040162000102906200062d565b60405180910390fd5b60005b85518110156200020357600086828151811062000154577f4e487b7100000000000000000000000000000000000000000000000000000000600052603260045260246000fd5b6020026020010151905060008082815260200190815260200160002060009054906101000a900460ff1615620001c1576040517f08c379a0000000000000000000000000000000000000000000000000000000008152600401620001b890620005e9565b60405180910390fd5b600160008083815260200190815260200160002060006101000a81548160ff021916908315150217905550508080620001fa9062000765565b9150506200010e565b5060005b8451811015620002c05760016005600087848151811062000251577f4e487b7100000000000000000000000000000000000000000000000000000000600052603260045260246000fd5b602002602001015173ffffffffffffffffffffffffffffffffffffffff1673ffffffffffffffffffffffffffffffffffffffff16815260200190815260200160002060006101000a81548160ff0219169083151502179055508080620002b79062000765565b91505062000207565b5085600460006101000a81548173ffffffffffffffffffffffffffffffffffffffff021916908373ffffffffffffffffffffffffffffffffffffffff16021790555082600181905550816002819055508060038190555050505050505062000911565b60006200033a620003348462000678565b6200064f565b905080838252602082019050828560208602820111156200035a57600080fd5b60005b858110156200038e57816200037388826200040d565b8452602084019350602083019250506001810190506200035d565b5050509392505050565b6000620003af620003a984620006a7565b6200064f565b90508083825260208201905082856020860282011115620003cf57600080fd5b60005b85811015620004035781620003e888826200047e565b845260208401935060208301925050600181019050620003d2565b5050509392505050565b6000815190506200041e81620008c3565b92915050565b600082601f8301126200043657600080fd5b81516200044884826020860162000323565b91505092915050565b600082601f8301126200046357600080fd5b81516200047584826020860162000398565b91505092915050565b6000815190506200048f81620008dd565b92915050565b600081519050620004a681620008f7565b92915050565b60008060008060008060c08789031215620004c657600080fd5b6000620004d689828a016200040d565b965050602087015167ffffffffffffffff811115620004f457600080fd5b6200050289828a0162000451565b955050604087015167ffffffffffffffff8111156200052057600080fd5b6200052e89828a0162000424565b94505060606200054189828a0162000495565b93505060806200055489828a0162000495565b92505060a06200056789828a0162000495565b9150509295509295509295565b600062000583601383620006d6565b9150620005908262000822565b602082019050919050565b6000620005aa601283620006d6565b9150620005b7826200084b565b602082019050919050565b6000620005d1602883620006d6565b9150620005de8262000874565b604082019050919050565b60006020820190508181036000830152620006048162000574565b9050919050565b6000602082019050818103600083015262000626816200059b565b9050919050565b600060208201905081810360008301526200064881620005c2565b9050919050565b60006200065b6200066e565b90506200066982826200072f565b919050565b6000604051905090565b600067ffffffffffffffff821115620006965762000695620007e2565b5b602082029050602081019050919050565b600067ffffffffffffffff821115620006c557620006c4620007e2565b5b602082029050602081019050919050565b600082825260208201905092915050565b6000620006f48262000705565b9050919050565b6000819050919050565b600073ffffffffffffffffffffffffffffffffffffffff82169050919050565b6000819050919050565b6200073a8262000811565b810181811067ffffffffffffffff821117156200075c576200075b620007e2565b5b80604052505050565b6000620007728262000725565b91507fffffffffffffffffffffffffffffffffffffffffffffffffffffffffffffffff821415620007a857620007a7620007b3565b5b600182019050919050565b7f4e487b7100000000000000000000000000000000000000000000000000000000600052601160045260246000fd5b7f4e487b7100000000000000000000000000000000000000000000000000000000600052604160045260246000fd5b6000601f19601f8301169050919050565b7f677561726469616e206e6f7420756e6971756500000000000000000000000000600082015250565b7f677561726469616e732072657175697265640000000000000000000000000000600082015250565b7f696e76616c6964206e756d626572206f6620726571756972656420636f6e666960008201527f726d6174696f6e73000000000000000000000000000000000000000000000000602082015250565b620008ce81620006e7565b8114620008da57600080fd5b50565b620008e881620006fb565b8114620008f457600080fd5b50565b620009028162000725565b81146200090e57600080fd5b50565b6140a180620009216000396000f3fe60806040526004361061016a5760003560e01c8063a123d70f116100d1578063d0549b851161008a578063e8edc81611610064578063e8edc816146105eb578063ee22610b14610616578063ee3f02eb1461063f578063f9f494ed14610668576101c1565b8063d0549b851461055a578063d16d441914610585578063e39a6ea3146105ae576101c1565b8063a123d70f1461044e578063add0def114610479578063b361e437146104a2578063c01a8c84146104cb578063c42fe50a146104f4578063c642747414610531576101c1565b80635dac5b02116101235780635dac5b0214610300578063697910a51461032957806380f59a65146103685780639ace38c2146103a55780639d21b102146103e65780639df35ea41461040f576101c1565b80630848a136146101c65780631929dbe41461020357806320ea8d86146102405780632e7700f01461026957806333ea3dc81461029457806336f8ff6f146102d5576101c1565b366101c1573373ffffffffffffffffffffffffffffffffffffffff167f90890809c654f11d6e72a28fa60149770a0d11ec6c92319d6ceb2bb0a4ea1a1534476040516101b79291906138d2565b60405180910390a2005b600080fd5b3480156101d257600080fd5b506101ed60048036038101906101e891906130be565b610691565b6040516101fa919061362c565b60405180910390f35b34801561020f57600080fd5b5061022a600480360381019061022591906131a0565b6106b1565b604051610237919061362c565b60405180910390f35b34801561024c57600080fd5b5061026760048036038101906102629190613177565b6106e0565b005b34801561027557600080fd5b5061027e6109ff565b60405161028b9190613887565b60405180910390f35b3480156102a057600080fd5b506102bb60048036038101906102b69190613177565b610a0c565b6040516102cc9594939291906135d2565b60405180910390f35b3480156102e157600080fd5b506102ea610b45565b6040516102f79190613887565b60405180910390f35b34801561030c57600080fd5b50610327600480360381019061032291906130be565b610b4b565b005b34801561033557600080fd5b50610350600480360381019061034b9190613177565b610d17565b60405161035f9392919061359b565b60405180910390f35b34801561037457600080fd5b5061038f600480360381019061038a91906131a0565b610d7e565b60405161039c919061362c565b60405180910390f35b3480156103b157600080fd5b506103cc60048036038101906103c79190613177565b610dad565b6040516103dd9594939291906135d2565b60405180910390f35b3480156103f257600080fd5b5061040d600480360381019061040891906130be565b610ea8565b005b34801561041b57600080fd5b5061043660048036038101906104319190613177565b611072565b6040516104459392919061359b565b60405180910390f35b34801561045a57600080fd5b506104636110d9565b6040516104709190613887565b60405180910390f35b34801561048557600080fd5b506104a0600480360381019061049b9190613177565b6110df565b005b3480156104ae57600080fd5b506104c960048036038101906104c49190613177565b611453565b005b3480156104d757600080fd5b506104f260048036038101906104ed9190613177565b6117c7565b005b34801561050057600080fd5b5061051b6004803603810190610516919061314e565b611ae9565b604051610528919061362c565b60405180910390f35b34801561053d57600080fd5b50610558600480360381019061055391906130e7565b611b09565b005b34801561056657600080fd5b5061056f611d73565b60405161057c9190613887565b60405180910390f35b34801561059157600080fd5b506105ac60048036038101906105a79190613177565b611d79565b005b3480156105ba57600080fd5b506105d560048036038101906105d091906131a0565b6120d3565b6040516105e2919061362c565b60405180910390f35b3480156105f757600080fd5b50610600612102565b60405161060d9190613580565b60405180910390f35b34801561062257600080fd5b5061063d60048036038101906106389190613177565b612128565b005b34801561064b57600080fd5b5061066660048036038101906106619190613177565b6124e8565b005b34801561067457600080fd5b5061068f600480360381019061068a91906130be565b612842565b005b60056020528060005260406000206000915054906101000a900460ff1681565b60086020528160005260406000206020528060005260406000206000915091509054906101000a900460ff1681565b600080336040516020016106f4919061354e565b60405160208183030381529060405280519060200120815260200190815260200160002060009054906101000a900460ff16610765576040517f08c379a000000000000000000000000000000000000000000000000000000000815260040161075c90613707565b60405180910390fd5b8060078054905081106107ad576040517f08c379a00000000000000000000000000000000000000000000000000000000081526004016107a490613747565b60405180910390fd5b81600781815481106107e8577f4e487b7100000000000000000000000000000000000000000000000000000000600052603260045260246000fd5b906000526020600020906005020160030160009054906101000a900460ff1615610847576040517f08c379a000000000000000000000000000000000000000000000000000000000815260040161083e906137e7565b60405180910390fd5b600060078481548110610883577f4e487b7100000000000000000000000000000000000000000000000000000000600052603260045260246000fd5b906000526020600020906005020190506006600085815260200190815260200160002060003373ffffffffffffffffffffffffffffffffffffffff1673ffffffffffffffffffffffffffffffffffffffff16815260200190815260200160002060009054906101000a900460ff16610930576040517f08c379a000000000000000000000000000000000000000000000000000000000815260040161092790613807565b60405180910390fd5b600181600401600082825461094591906139f4565b9250508190555060006006600086815260200190815260200160002060003373ffffffffffffffffffffffffffffffffffffffff1673ffffffffffffffffffffffffffffffffffffffff16815260200190815260200160002060006101000a81548160ff021916908315150217905550833373ffffffffffffffffffffffffffffffffffffffff167f172edaebbc9944c9912960206bee2eaa05c34505dc575830d7cff5bddb3f8d1160405160405180910390a350505050565b6000600780549050905090565b6000806060600080600060078781548110610a50577f4e487b7100000000000000000000000000000000000000000000000000000000600052603260045260246000fd5b906000526020600020906005020190508060000160009054906101000a900473ffffffffffffffffffffffffffffffffffffffff168160010154826002018360030160009054906101000a900460ff168460040154828054610ab190613abc565b80601f0160208091040260200160405190810160405280929190818152602001828054610add90613abc565b8015610b2a5780601f10610aff57610100808354040283529160200191610b2a565b820191906000526020600020905b815481529060010190602001808311610b0d57829003601f168201915b50505050509250955095509550955095505091939590929450565b60035481565b3373ffffffffffffffffffffffffffffffffffffffff16600460009054906101000a900473ffffffffffffffffffffffffffffffffffffffff1673ffffffffffffffffffffffffffffffffffffffff1614610bdb576040517f08c379a0000000000000000000000000000000000000000000000000000000008152600401610bd290613827565b60405180910390fd5b6000600b805490509050600b60405180606001604052808473ffffffffffffffffffffffffffffffffffffffff1681526020016000151581526020016000815250908060018154018082558091505060019003906000526020600020906002020160009091909190915060008201518160000160006101000a81548173ffffffffffffffffffffffffffffffffffffffff021916908373ffffffffffffffffffffffffffffffffffffffff16021790555060208201518160000160146101000a81548160ff0219169083151502179055506040820151816001015550508173ffffffffffffffffffffffffffffffffffffffff16813373ffffffffffffffffffffffffffffffffffffffff167feff8c830aa84375f7346e81e4b0773412ec8f9189b87c8ebcd3b399b1287117f60405160405180910390a45050565b60098181548110610d2757600080fd5b90600052602060002090600202016000915090508060000160009054906101000a900473ffffffffffffffffffffffffffffffffffffffff16908060000160149054906101000a900460ff16908060010154905083565b60066020528160005260406000206020528060005260406000206000915091509054906101000a900460ff1681565b60078181548110610dbd57600080fd5b90600052602060002090600502016000915090508060000160009054906101000a900473ffffffffffffffffffffffffffffffffffffffff1690806001015490806002018054610e0c90613abc565b80601f0160208091040260200160405190810160405280929190818152602001828054610e3890613abc565b8015610e855780601f10610e5a57610100808354040283529160200191610e85565b820191906000526020600020905b815481529060010190602001808311610e6857829003601f168201915b5050505050908060030160009054906101000a900460ff16908060040154905085565b60008033604051602001610ebc919061354e565b60405160208183030381529060405280519060200120815260200190815260200160002060009054906101000a900460ff16610f2d576040517f08c379a0000000000000000000000000000000000000000000000000000000008152600401610f2490613707565b60405180910390fd5b60006009805490509050600960405180606001604052808473ffffffffffffffffffffffffffffffffffffffff1681526020016000151581526020016000815250908060018154018082558091505060019003906000526020600020906002020160009091909190915060008201518160000160006101000a81548173ffffffffffffffffffffffffffffffffffffffff021916908373ffffffffffffffffffffffffffffffffffffffff16021790555060208201518160000160146101000a81548160ff02191690831515021790555060408201518160010155505061101381611453565b8173ffffffffffffffffffffffffffffffffffffffff16813373ffffffffffffffffffffffffffffffffffffffff167fcc249697f6745591e1e38b498f0bb0d8efc06fdeebe6b12ab50f615398e8100160405160405180910390a45050565b600b818154811061108257600080fd5b90600052602060002090600202016000915090508060000160009054906101000a900473ffffffffffffffffffffffffffffffffffffffff16908060000160149054906101000a900460ff16908060010154905083565b60025481565b600080336040516020016110f3919061354e565b60405160208183030381529060405280519060200120815260200190815260200160002060009054906101000a900460ff16611164576040517f08c379a000000000000000000000000000000000000000000000000000000000815260040161115b90613707565b60405180910390fd5b80600b8054905081106111ac576040517f08c379a00000000000000000000000000000000000000000000000000000000081526004016111a3906136c7565b60405180910390fd5b81600b81815481106111e7577f4e487b7100000000000000000000000000000000000000000000000000000000600052603260045260246000fd5b906000526020600020906002020160000160149054906101000a900460ff1615611246576040517f08c379a000000000000000000000000000000000000000000000000000000000815260040161123d906136a7565b60405180910390fd5b82600a600082815260200190815260200160002060003373ffffffffffffffffffffffffffffffffffffffff1673ffffffffffffffffffffffffffffffffffffffff16815260200190815260200160002060009054906101000a900460ff16156112e5576040517f08c379a00000000000000000000000000000000000000000000000000000000081526004016112dc90613687565b60405180910390fd5b6000600b8581548110611321577f4e487b7100000000000000000000000000000000000000000000000000000000600052603260045260246000fd5b906000526020600020906002020190506001816001016000828254611346919061399e565b925050819055506001600a600087815260200190815260200160002060003373ffffffffffffffffffffffffffffffffffffffff1673ffffffffffffffffffffffffffffffffffffffff16815260200190815260200160002060006101000a81548160ff0219169083151502179055506003548160010154106113cd576113cc85612987565b5b8060000160009054906101000a900473ffffffffffffffffffffffffffffffffffffffff1673ffffffffffffffffffffffffffffffffffffffff16853373ffffffffffffffffffffffffffffffffffffffff167fce7a1b8420a7c73f8be5c3f8c31392f207ef7c86c568b9e7530d17f9b65234e260405160405180910390a45050505050565b60008033604051602001611467919061354e565b60405160208183030381529060405280519060200120815260200190815260200160002060009054906101000a900460ff166114d8576040517f08c379a00000000000000000000000000000000000000000000000000000000081526004016114cf90613707565b60405180910390fd5b806009805490508110611520576040517f08c379a000000000000000000000000000000000000000000000000000000000815260040161151790613667565b60405180910390fd5b816009818154811061155b577f4e487b7100000000000000000000000000000000000000000000000000000000600052603260045260246000fd5b906000526020600020906002020160000160149054906101000a900460ff16156115ba576040517f08c379a00000000000000000000000000000000000000000000000000000000081526004016115b190613647565b60405180910390fd5b826008600082815260200190815260200160002060003373ffffffffffffffffffffffffffffffffffffffff1673ffffffffffffffffffffffffffffffffffffffff16815260200190815260200160002060009054906101000a900460ff1615611659576040517f08c379a0000000000000000000000000000000000000000000000000000000008152600401611650906137c7565b60405180910390fd5b600060098581548110611695577f4e487b7100000000000000000000000000000000000000000000000000000000600052603260045260246000fd5b9060005260206000209060020201905060018160010160008282546116ba919061399e565b9250508190555060016008600087815260200190815260200160002060003373ffffffffffffffffffffffffffffffffffffffff1673ffffffffffffffffffffffffffffffffffffffff16815260200190815260200160002060006101000a81548160ff0219169083151502179055506002548160010154106117415761174085612c8a565b5b8060000160009054906101000a900473ffffffffffffffffffffffffffffffffffffffff1673ffffffffffffffffffffffffffffffffffffffff16853373ffffffffffffffffffffffffffffffffffffffff167f47b3224585c9de33089124a11d4d51e09efae2bfbe756194ff9bd99e762cb44660405160405180910390a45050505050565b600080336040516020016117db919061354e565b60405160208183030381529060405280519060200120815260200190815260200160002060009054906101000a900460ff1661184c576040517f08c379a000000000000000000000000000000000000000000000000000000000815260040161184390613707565b60405180910390fd5b806007805490508110611894576040517f08c379a000000000000000000000000000000000000000000000000000000000815260040161188b90613747565b60405180910390fd5b81600781815481106118cf577f4e487b7100000000000000000000000000000000000000000000000000000000600052603260045260246000fd5b906000526020600020906005020160030160009054906101000a900460ff161561192e576040517f08c379a0000000000000000000000000000000000000000000000000000000008152600401611925906137e7565b60405180910390fd5b826006600082815260200190815260200160002060003373ffffffffffffffffffffffffffffffffffffffff1673ffffffffffffffffffffffffffffffffffffffff16815260200190815260200160002060009054906101000a900460ff16156119cd576040517f08c379a00000000000000000000000000000000000000000000000000000000081526004016119c490613767565b60405180910390fd5b600060078581548110611a09577f4e487b7100000000000000000000000000000000000000000000000000000000600052603260045260246000fd5b906000526020600020906005020190506001816004016000828254611a2e919061399e565b9250508190555060016006600087815260200190815260200160002060003373ffffffffffffffffffffffffffffffffffffffff1673ffffffffffffffffffffffffffffffffffffffff16815260200190815260200160002060006101000a81548160ff021916908315150217905550843373ffffffffffffffffffffffffffffffffffffffff167f5cbe105e36805f7820e291f799d5794ff948af2a5f664e580382defb6339004160405160405180910390a35050505050565b60006020528060005260406000206000915054906101000a900460ff1681565b3373ffffffffffffffffffffffffffffffffffffffff16600460009054906101000a900473ffffffffffffffffffffffffffffffffffffffff1673ffffffffffffffffffffffffffffffffffffffff1614611b99576040517f08c379a0000000000000000000000000000000000000000000000000000000008152600401611b9090613827565b60405180910390fd5b6000600780549050905060076040518060a001604052808673ffffffffffffffffffffffffffffffffffffffff1681526020018581526020018481526020016000151581526020016000815250908060018154018082558091505060019003906000526020600020906005020160009091909190915060008201518160000160006101000a81548173ffffffffffffffffffffffffffffffffffffffff021916908373ffffffffffffffffffffffffffffffffffffffff160217905550602082015181600101556040820151816002019080519060200190611c7c929190612f74565b5060608201518160030160006101000a81548160ff0219169083151502179055506080820151816004015550508373ffffffffffffffffffffffffffffffffffffffff16813373ffffffffffffffffffffffffffffffffffffffff167fd5a05bf70715ad82a09a756320284a1b54c9ff74cd0f8cce6219e79b563fe59d8686604051611d099291906138a2565b60405180910390a4600560008573ffffffffffffffffffffffffffffffffffffffff1673ffffffffffffffffffffffffffffffffffffffff16815260200190815260200160002060009054906101000a900460ff1615611d6d57611d6c81612128565b5b50505050565b60015481565b60008033604051602001611d8d919061354e565b60405160208183030381529060405280519060200120815260200190815260200160002060009054906101000a900460ff16611dfe576040517f08c379a0000000000000000000000000000000000000000000000000000000008152600401611df590613707565b60405180910390fd5b806009805490508110611e46576040517f08c379a0000000000000000000000000000000000000000000000000000000008152600401611e3d90613667565b60405180910390fd5b8160098181548110611e81577f4e487b7100000000000000000000000000000000000000000000000000000000600052603260045260246000fd5b906000526020600020906002020160000160149054906101000a900460ff1615611ee0576040517f08c379a0000000000000000000000000000000000000000000000000000000008152600401611ed790613647565b60405180910390fd5b600060098481548110611f1c577f4e487b7100000000000000000000000000000000000000000000000000000000600052603260045260246000fd5b906000526020600020906002020190506008600085815260200190815260200160002060003373ffffffffffffffffffffffffffffffffffffffff1673ffffffffffffffffffffffffffffffffffffffff16815260200190815260200160002060009054906101000a900460ff16611fc9576040517f08c379a0000000000000000000000000000000000000000000000000000000008152600401611fc0906137a7565b60405180910390fd5b6001816001016000828254611fde91906139f4565b9250508190555060006008600086815260200190815260200160002060003373ffffffffffffffffffffffffffffffffffffffff1673ffffffffffffffffffffffffffffffffffffffff16815260200190815260200160002060006101000a81548160ff0219169083151502179055508060000160009054906101000a900473ffffffffffffffffffffffffffffffffffffffff1673ffffffffffffffffffffffffffffffffffffffff16843373ffffffffffffffffffffffffffffffffffffffff167f26faab826289d6aa0ce101727bed7da454a8ecd45e905d734fd600d568b2b10f60405160405180910390a450505050565b600a6020528160005260406000206020528060005260406000206000915091509054906101000a900460ff1681565b600460009054906101000a900473ffffffffffffffffffffffffffffffffffffffff1681565b3373ffffffffffffffffffffffffffffffffffffffff16600460009054906101000a900473ffffffffffffffffffffffffffffffffffffffff1673ffffffffffffffffffffffffffffffffffffffff16146121b8576040517f08c379a00000000000000000000000000000000000000000000000000000000081526004016121af90613827565b60405180910390fd5b806007805490508110612200576040517f08c379a00000000000000000000000000000000000000000000000000000000081526004016121f790613747565b60405180910390fd5b816007818154811061223b577f4e487b7100000000000000000000000000000000000000000000000000000000600052603260045260246000fd5b906000526020600020906005020160030160009054906101000a900460ff161561229a576040517f08c379a0000000000000000000000000000000000000000000000000000000008152600401612291906137e7565b60405180910390fd5b6000600784815481106122d6577f4e487b7100000000000000000000000000000000000000000000000000000000600052603260045260246000fd5b9060005260206000209060050201905060015481600401541015806123685750600560008260000160009054906101000a900473ffffffffffffffffffffffffffffffffffffffff1673ffffffffffffffffffffffffffffffffffffffff1673ffffffffffffffffffffffffffffffffffffffff16815260200190815260200160002060009054906101000a900460ff165b6123a7576040517f08c379a000000000000000000000000000000000000000000000000000000000815260040161239e90613847565b60405180910390fd5b60018160030160006101000a81548160ff02191690831515021790555060008160000160009054906101000a900473ffffffffffffffffffffffffffffffffffffffff1673ffffffffffffffffffffffffffffffffffffffff168260010154836002016040516124179190613569565b60006040518083038185875af1925050503d8060008114612454576040519150601f19603f3d011682016040523d82523d6000602084013e612459565b606091505b505090508061249d576040517f08c379a0000000000000000000000000000000000000000000000000000000008152600401612494906136e7565b60405180910390fd5b843373ffffffffffffffffffffffffffffffffffffffff167f5445f318f4f5fcfb66592e68e0cc5822aa15664039bd5f0ffde24c5a8142b1ac60405160405180910390a35050505050565b600080336040516020016124fc919061354e565b60405160208183030381529060405280519060200120815260200190815260200160002060009054906101000a900460ff1661256d576040517f08c379a000000000000000000000000000000000000000000000000000000000815260040161256490613707565b60405180910390fd5b80600b8054905081106125b5576040517f08c379a00000000000000000000000000000000000000000000000000000000081526004016125ac906136c7565b60405180910390fd5b81600b81815481106125f0577f4e487b7100000000000000000000000000000000000000000000000000000000600052603260045260246000fd5b906000526020600020906002020160000160149054906101000a900460ff161561264f576040517f08c379a0000000000000000000000000000000000000000000000000000000008152600401612646906136a7565b60405180910390fd5b6000600b848154811061268b577f4e487b7100000000000000000000000000000000000000000000000000000000600052603260045260246000fd5b90600052602060002090600202019050600a600085815260200190815260200160002060003373ffffffffffffffffffffffffffffffffffffffff1673ffffffffffffffffffffffffffffffffffffffff16815260200190815260200160002060009054906101000a900460ff16612738576040517f08c379a000000000000000000000000000000000000000000000000000000000815260040161272f90613867565b60405180910390fd5b600181600101600082825461274d91906139f4565b925050819055506000600a600086815260200190815260200160002060003373ffffffffffffffffffffffffffffffffffffffff1673ffffffffffffffffffffffffffffffffffffffff16815260200190815260200160002060006101000a81548160ff0219169083151502179055508060000160009054906101000a900473ffffffffffffffffffffffffffffffffffffffff1673ffffffffffffffffffffffffffffffffffffffff16843373ffffffffffffffffffffffffffffffffffffffff167f7a0779e8725aa74e87f03c4f5b105610a9b6c1613c37c73e8482c4d4e0e2aebb60405160405180910390a450505050565b3373ffffffffffffffffffffffffffffffffffffffff16600460009054906101000a900473ffffffffffffffffffffffffffffffffffffffff1673ffffffffffffffffffffffffffffffffffffffff16146128d2576040517f08c379a00000000000000000000000000000000000000000000000000000000081526004016128c990613827565b60405180910390fd5b6000600560008373ffffffffffffffffffffffffffffffffffffffff1673ffffffffffffffffffffffffffffffffffffffff16815260200190815260200160002060006101000a81548160ff0219169083151502179055508073ffffffffffffffffffffffffffffffffffffffff163373ffffffffffffffffffffffffffffffffffffffff167f6255fe40b97fdb588198ffe8b96e5867a1351be1a0df4f89ae1eaff3d967be2460405160405180910390a350565b6000803360405160200161299b919061354e565b60405160208183030381529060405280519060200120815260200190815260200160002060009054906101000a900460ff16612a0c576040517f08c379a0000000000000000000000000000000000000000000000000000000008152600401612a0390613707565b60405180910390fd5b80600b805490508110612a54576040517f08c379a0000000000000000000000000000000000000000000000000000000008152600401612a4b906136c7565b60405180910390fd5b81600b8181548110612a8f577f4e487b7100000000000000000000000000000000000000000000000000000000600052603260045260246000fd5b906000526020600020906002020160000160149054906101000a900460ff1615612aee576040517f08c379a0000000000000000000000000000000000000000000000000000000008152600401612ae5906136a7565b60405180910390fd5b6000600b8481548110612b2a577f4e487b7100000000000000000000000000000000000000000000000000000000600052603260045260246000fd5b9060005260206000209060020201905060035481600101541015612b83576040517f08c379a0000000000000000000000000000000000000000000000000000000008152600401612b7a90613727565b60405180910390fd5b60018160000160146101000a81548160ff0219169083151502179055506001600560008360000160009054906101000a900473ffffffffffffffffffffffffffffffffffffffff1673ffffffffffffffffffffffffffffffffffffffff1673ffffffffffffffffffffffffffffffffffffffff16815260200190815260200160002060006101000a81548160ff0219169083151502179055508060000160009054906101000a900473ffffffffffffffffffffffffffffffffffffffff1673ffffffffffffffffffffffffffffffffffffffff16847ffdd6e07291d7fbf1ac4262512fa38e5b8c65dce92bd8a1b41933ce235108856060405160405180910390a350505050565b60008033604051602001612c9e919061354e565b60405160208183030381529060405280519060200120815260200190815260200160002060009054906101000a900460ff16612d0f576040517f08c379a0000000000000000000000000000000000000000000000000000000008152600401612d0690613707565b60405180910390fd5b806009805490508110612d57576040517f08c379a0000000000000000000000000000000000000000000000000000000008152600401612d4e90613667565b60405180910390fd5b8160098181548110612d92577f4e487b7100000000000000000000000000000000000000000000000000000000600052603260045260246000fd5b906000526020600020906002020160000160149054906101000a900460ff1615612df1576040517f08c379a0000000000000000000000000000000000000000000000000000000008152600401612de890613647565b60405180910390fd5b600060098481548110612e2d577f4e487b7100000000000000000000000000000000000000000000000000000000600052603260045260246000fd5b9060005260206000209060020201905060025481600101541015612e86576040517f08c379a0000000000000000000000000000000000000000000000000000000008152600401612e7d90613787565b60405180910390fd5b60018160000160146101000a81548160ff0219169083151502179055508060000160009054906101000a900473ffffffffffffffffffffffffffffffffffffffff16600460006101000a81548173ffffffffffffffffffffffffffffffffffffffff021916908373ffffffffffffffffffffffffffffffffffffffff160217905550600460009054906101000a900473ffffffffffffffffffffffffffffffffffffffff1673ffffffffffffffffffffffffffffffffffffffff16847f4003e172801cece05cc2e2f90d112fa4a93e1779ed20d639b2934a5df251126a60405160405180910390a350505050565b828054612f8090613abc565b90600052602060002090601f016020900481019282612fa25760008555612fe9565b82601f10612fbb57805160ff1916838001178555612fe9565b82800160010185558215612fe9579182015b82811115612fe8578251825591602001919060010190612fcd565b5b509050612ff69190612ffa565b5090565b5b80821115613013576000816000905550600101612ffb565b5090565b600061302a61302584613920565b6138fb565b90508281526020810184848401111561304257600080fd5b61304d848285613a7a565b509392505050565b60008135905061306481614026565b92915050565b6000813590506130798161403d565b92915050565b600082601f83011261309057600080fd5b81356130a0848260208601613017565b91505092915050565b6000813590506130b881614054565b92915050565b6000602082840312156130d057600080fd5b60006130de84828501613055565b91505092915050565b6000806000606084860312156130fc57600080fd5b600061310a86828701613055565b935050602061311b868287016130a9565b925050604084013567ffffffffffffffff81111561313857600080fd5b6131448682870161307f565b9150509250925092565b60006020828403121561316057600080fd5b600061316e8482850161306a565b91505092915050565b60006020828403121561318957600080fd5b6000613197848285016130a9565b91505092915050565b600080604083850312156131b357600080fd5b60006131c1858286016130a9565b92505060206131d285828601613055565b9150509250929050565b6131e581613a28565b82525050565b6131fc6131f782613a28565b613b1f565b82525050565b61320b81613a3a565b82525050565b600061321c82613966565b6132268185613971565b9350613236818560208601613a89565b61323f81613bd0565b840191505092915050565b6000815461325781613abc565b6132618186613982565b9450600182166000811461327c576001811461328d576132c0565b60ff198316865281860193506132c0565b61329685613951565b60005b838110156132b857815481890152600182019150602081019050613299565b838801955050505b50505092915050565b60006132d660238361398d565b91506132e182613bee565b604082019050919050565b60006132f960218361398d565b915061330482613c3d565b604082019050919050565b600061331c60258361398d565b915061332782613c8c565b604082019050919050565b600061333f60288361398d565b915061334a82613cdb565b604082019050919050565b600061336260268361398d565b915061336d82613d2a565b604082019050919050565b600061338560098361398d565b915061339082613d79565b602082019050919050565b60006133a8600c8361398d565b91506133b382613da2565b602082019050919050565b60006133cb60268361398d565b91506133d682613dcb565b604082019050919050565b60006133ee60118361398d565b91506133f982613e1a565b602082019050919050565b600061341160148361398d565b915061341c82613e43565b602082019050919050565b600061343460218361398d565b915061343f82613e6c565b604082019050919050565b600061345760208361398d565b915061346282613ebb565b602082019050919050565b600061347a60248361398d565b915061348582613ee4565b604082019050919050565b600061349d60138361398d565b91506134a882613f33565b602082019050919050565b60006134c060108361398d565b91506134cb82613f5c565b602082019050919050565b60006134e3600b8361398d565b91506134ee82613f85565b602082019050919050565b600061350660118361398d565b915061351182613fae565b602082019050919050565b600061352960218361398d565b915061353482613fd7565b604082019050919050565b61354881613a70565b82525050565b600061355a82846131eb565b60148201915081905092915050565b6000613575828461324a565b915081905092915050565b600060208201905061359560008301846131dc565b92915050565b60006060820190506135b060008301866131dc565b6135bd6020830185613202565b6135ca604083018461353f565b949350505050565b600060a0820190506135e760008301886131dc565b6135f4602083018761353f565b81810360408301526136068186613211565b90506136156060830185613202565b613622608083018461353f565b9695505050505050565b60006020820190506136416000830184613202565b92915050565b60006020820190508181036000830152613660816132c9565b9050919050565b60006020820190508181036000830152613680816132ec565b9050919050565b600060208201905081810360008301526136a08161330f565b9050919050565b600060208201905081810360008301526136c081613332565b9050919050565b600060208201905081810360008301526136e081613355565b9050919050565b6000602082019050818103600083015261370081613378565b9050919050565b600060208201905081810360008301526137208161339b565b9050919050565b60006020820190508181036000830152613740816133be565b9050919050565b60006020820190508181036000830152613760816133e1565b9050919050565b6000602082019050818103600083015261378081613404565b9050919050565b600060208201905081810360008301526137a081613427565b9050919050565b600060208201905081810360008301526137c08161344a565b9050919050565b600060208201905081810360008301526137e08161346d565b9050919050565b6000602082019050818103600083015261380081613490565b9050919050565b60006020820190508181036000830152613820816134b3565b9050919050565b60006020820190508181036000830152613840816134d6565b9050919050565b60006020820190508181036000830152613860816134f9565b9050919050565b600060208201905081810360008301526138808161351c565b9050919050565b600060208201905061389c600083018461353f565b92915050565b60006040820190506138b7600083018561353f565b81810360208301526138c98184613211565b90509392505050565b60006040820190506138e7600083018561353f565b6138f4602083018461353f565b9392505050565b6000613905613916565b90506139118282613aee565b919050565b6000604051905090565b600067ffffffffffffffff82111561393b5761393a613ba1565b5b61394482613bd0565b9050602081019050919050565b60008190508160005260206000209050919050565b600081519050919050565b600082825260208201905092915050565b600081905092915050565b600082825260208201905092915050565b60006139a982613a70565b91506139b483613a70565b9250827fffffffffffffffffffffffffffffffffffffffffffffffffffffffffffffffff038211156139e9576139e8613b43565b5b828201905092915050565b60006139ff82613a70565b9150613a0a83613a70565b925082821015613a1d57613a1c613b43565b5b828203905092915050565b6000613a3382613a50565b9050919050565b60008115159050919050565b6000819050919050565b600073ffffffffffffffffffffffffffffffffffffffff82169050919050565b6000819050919050565b82818337600083830152505050565b60005b83811015613aa7578082015181840152602081019050613a8c565b83811115613ab6576000848401525b50505050565b60006002820490506001821680613ad457607f821691505b60208210811415613ae857613ae7613b72565b5b50919050565b613af782613bd0565b810181811067ffffffffffffffff82111715613b1657613b15613ba1565b5b80604052505050565b6000613b2a82613b31565b9050919050565b6000613b3c82613be1565b9050919050565b7f4e487b7100000000000000000000000000000000000000000000000000000000600052601160045260246000fd5b7f4e487b7100000000000000000000000000000000000000000000000000000000600052602260045260246000fd5b7f4e487b7100000000000000000000000000000000000000000000000000000000600052604160045260246000fd5b6000601f19601f8301169050919050565b60008160601b9050919050565b7f6368616e6765207370656e6465722072657120616c726561647920657865637560008201527f7465640000000000000000000000000000000000000000000000000000000000602082015250565b7f6368616e6765207370656e6465722072657120646f6573206e6f74206578697360008201527f7400000000000000000000000000000000000000000000000000000000000000602082015250565b7f6164642074727573746564206164647265737320616c726561647920636f6e6660008201527f69726d6564000000000000000000000000000000000000000000000000000000602082015250565b7f616464207472757374656420616464726573732072657120616c72656164792060008201527f6578656375746564000000000000000000000000000000000000000000000000602082015250565b7f616464207472757374656420616464726573732072657120646f6573206e6f7460008201527f2065786973740000000000000000000000000000000000000000000000000000602082015250565b7f7478206661696c65640000000000000000000000000000000000000000000000600082015250565b7f6e6f7420677561726469616e0000000000000000000000000000000000000000600082015250565b7f63616e6e6f74206578656375746520616464207472757374656420616464726560008201527f7373207265710000000000000000000000000000000000000000000000000000602082015250565b7f747820646f6573206e6f74206578697374000000000000000000000000000000600082015250565b7f747820616c726561647920636f6e6669726d6564000000000000000000000000600082015250565b7f63616e6e6f742065786563757465206368616e6765207370656e64657220726560008201527f7100000000000000000000000000000000000000000000000000000000000000602082015250565b7f6368616e6765207370656e64657220726571206e6f7420636f6e6669726d6564600082015250565b7f6368616e6765207370656e6465722072657120616c726561647920636f6e666960008201527f726d656400000000000000000000000000000000000000000000000000000000602082015250565b7f747820616c726561647920657865637574656400000000000000000000000000600082015250565b7f7478206e6f7420636f6e6669726d656400000000000000000000000000000000600082015250565b7f6e6f74207370656e646572000000000000000000000000000000000000000000600082015250565b7f63616e6e6f742065786563757465207478000000000000000000000000000000600082015250565b7f61646420747275737465642061646472657373206e6f7420636f6e6669726d6560008201527f6400000000000000000000000000000000000000000000000000000000000000602082015250565b61402f81613a28565b811461403a57600080fd5b50565b61404681613a46565b811461405157600080fd5b50565b61405d81613a70565b811461406857600080fd5b5056fea264697066735822122074da25f38a92e3d997c9dcfa5a616fe4e4c06b0d96458421e099a8b0fba48c6764736f6c63430008030033",
  "immutableReferences": {},
  "source": "// SPDX-License-Identifier: MIT\npragma solidity ^0.8.3;\n\n/**\nProposed solutions for vaulting:\n- 2 wallets: 1 saving, 1 checking (daily uses), the latter contains few funds and doesn't neeed guardian approval for transaction execution\n- The savings account by default needs N confirmations for executing a transactions, but has the possibility to have trusted/whitelisted recipients that do not\n  need any guardian approval. Adding an address to the trusted addresses list need the approval by guardians\n- Daily limit could be implemented by making use of block.timestamp\n\nProposed solution for privacy:\n- hashing guardians addresses\n- merkle proofs\n\nFor increased security and enforcing cooperation between owner and guardians\n- User secret data hash needed to change spender key, and it could be biometric secret data\n */\n\ncontract SocialRecoveryWallet {\n    event Deposit(address indexed sender, uint amount, uint balance);\n    event SubmitTransaction(\n        address indexed spender,\n        uint indexed txIndex,\n        address indexed to,\n        uint value,\n        bytes data\n    );\n    event ConfirmTransaction(address indexed guardian, uint indexed txIndex);\n    event RevokeTxConfirmation(address indexed guardian, uint indexed txIndex);\n    event ExecuteTransaction(address indexed spender, uint indexed txIndex);\n    event SubmitChangeSpender(address indexed guardian, uint indexed reqIndex, address indexed newSpender);\n    event ConfirmChangeSpender(address indexed guardian, uint indexed reqIndex, address indexed newSpender);\n    event RevokeChangeSpender(address indexed guardian, uint indexed reqIndex, address indexed newSpender);\n    event ExecuteChangeSpender(uint indexed reqIndex, address indexed newSpender);\n    event RemoveTrustedAddress(address indexed spender, address indexed removedTrusted);\n    event SubmitAddTrusted(address indexed spender, uint indexed reqIndex, address indexed newTrustedAddress);\n    event ConfirmAddTrusted(address indexed guardian, uint indexed reqIndex, address indexed newTrustedAddress);\n    event RevokeAddTrusted(address indexed guardian, uint indexed reqIndex, address indexed newTrustedAddress);\n    event ExecuteAddTrusted(uint indexed reqIndex, address indexed newTrustedAddress);\n\n    mapping(bytes32 => bool) public isGuardian;\n    uint public numConfirmationsRequired; // Transactions\n    uint public numConfirmationsRequiredToChangeSpender;\n    uint public numConfirmationsRequiredToAddTrustedAddress;\n\n    address public spender; // Who can spend the funds of the Social Recovery Wallet\n\n    mapping(address => bool) public isTrustedAddress;\n\n    struct Transaction {\n        address to;\n        uint value;\n        bytes data;\n        bool executed;\n        uint numConfirmations;\n    }\n\n    struct ChangeSpenderRequest {\n      address newSpender;\n      bool executed;\n      uint numConfirmations;\n    }\n\n    struct AddTrustedAddressRequest {\n      address newTrustedAddress;\n      bool executed;\n      uint numConfirmations;\n    }\n\n    // mapping from tx index => guardian => bool\n    mapping(uint => mapping(address => bool)) public isConfirmed; // regards TRANSACTIONS\n\n    Transaction[] public transactions;\n\n    // mapping from change spender req index => guardian => bool\n    mapping(uint => mapping(address => bool)) public isChangeSpenderRequestConfirmed; // regards CHANGE SPENDER REQUESTS\n\n    ChangeSpenderRequest[] public changeSpenderRequests;\n\n    // mapping from add trusted addr req index => guardian => bool\n    mapping(uint => mapping(address => bool)) public isAddTrustedAddressRequestConfirmed; // regards CHANGE SPENDER REQUESTS\n\n    AddTrustedAddressRequest[] public addTrustedAddressRequests;\n\n    modifier onlyGuardian() {\n        require(isGuardian[keccak256(abi.encodePacked(msg.sender))], \"not guardian\");\n        _;\n    }\n\n    modifier onlySpender() {\n        require(spender == msg.sender, \"not spender\");\n        _;\n    }\n\n    // modifiers regarding TRANSACTIONS\n    modifier txExists(uint _txIndex) {\n        require(_txIndex < transactions.length, \"tx does not exist\");\n        _;\n    }\n\n    modifier notExecuted(uint _txIndex) {\n        require(!transactions[_txIndex].executed, \"tx already executed\");\n        _;\n    }\n\n    modifier notConfirmed(uint _txIndex) {\n        require(!isConfirmed[_txIndex][msg.sender], \"tx already confirmed\");\n        _;\n    }\n\n    // modifiers regarding CHANGE SPENDER REQs\n    modifier changeSpenderRequestExists(uint _reqIndex) {\n        require(_reqIndex < changeSpenderRequests.length, \"change spender req does not exist\");\n        _;\n    }\n\n    modifier changeSpenderRequestNotExecuted(uint _reqIndex) {\n        require(!changeSpenderRequests[_reqIndex].executed, \"change spender req already executed\");\n        _;\n    }\n\n    modifier changeSpenderRequestNotConfirmed(uint _reqIndex) {\n        require(!isChangeSpenderRequestConfirmed[_reqIndex][msg.sender], \"change spender req already confirmed\");\n        _;\n    }\n\n    // modifiers regarding ADD TRUSTED ADDRESS REQs\n    modifier addTrustedAddressRequestExists(uint _reqIndex) {\n        require(_reqIndex < addTrustedAddressRequests.length, \"add trusted address req does not exist\");\n        _;\n    }\n\n    modifier addTrustedAddressRequestNotExecuted(uint _reqIndex) {\n        require(!addTrustedAddressRequests[_reqIndex].executed, \"add trusted address req already executed\");\n        _;\n    }\n\n    modifier addTrustedAddressRequestNotConfirmed(uint _reqIndex) {\n        require(!isAddTrustedAddressRequestConfirmed[_reqIndex][msg.sender], \"add trusted address already confirmed\");\n        _;\n    }\n\n    constructor(address _spender, bytes32[] memory _guardians, address[] memory _trustedAddresses, uint _numConfirmationsRequired, uint _numConfirmationsRequiredToChangeSpender, uint _numConfirmationsRequiredToAddTrustedAddress) {\n        require(_guardians.length > 0, \"guardians required\");\n        require(\n            _numConfirmationsRequired >= 0 &&\n                _numConfirmationsRequired <= _guardians.length &&\n                _numConfirmationsRequiredToChangeSpender >= 0 &&\n                _numConfirmationsRequiredToChangeSpender <= _guardians.length &&\n                _numConfirmationsRequiredToAddTrustedAddress >= 0 &&\n                _numConfirmationsRequiredToAddTrustedAddress <= _guardians.length,\n            \"invalid number of required confirmations\"\n        );\n\n        for (uint i = 0; i < _guardians.length; i++) {\n            bytes32 guardian = _guardians[i];\n\n            require(!isGuardian[guardian], \"guardian not unique\");\n\n            isGuardian[guardian] = true;\n        }\n\n        for (uint i = 0; i < _trustedAddresses.length; i++){\n            isTrustedAddress[_trustedAddresses[i]] = true;\n        }\n\n        spender = _spender;\n        numConfirmationsRequired = _numConfirmationsRequired;\n        numConfirmationsRequiredToChangeSpender = _numConfirmationsRequiredToChangeSpender;\n        numConfirmationsRequiredToAddTrustedAddress = _numConfirmationsRequiredToAddTrustedAddress;\n    }\n\n    receive() external payable {\n        emit Deposit(msg.sender, msg.value, address(this).balance);\n    }\n\n    // Functions related to TRANSACTIONS\n    function submitTransaction(\n        address _to,\n        uint _value,\n        bytes memory _data\n    ) public onlySpender {\n        uint txIndex = transactions.length;\n\n        transactions.push(\n            Transaction({\n                to: _to,\n                value: _value,\n                data: _data,\n                executed: false,\n                numConfirmations: 0\n            })\n        );\n\n        emit SubmitTransaction(msg.sender, txIndex, _to, _value, _data);\n\n        if (isTrustedAddress[_to]){\n            executeTransaction(txIndex);\n        }\n    }\n\n    function confirmTransaction(uint _txIndex)\n        external\n        onlyGuardian\n        txExists(_txIndex)\n        notExecuted(_txIndex)\n        notConfirmed(_txIndex)\n    {\n        Transaction storage transaction = transactions[_txIndex];\n        transaction.numConfirmations += 1;\n        isConfirmed[_txIndex][msg.sender] = true;\n\n        emit ConfirmTransaction(msg.sender, _txIndex);\n    }\n\n    function executeTransaction(uint _txIndex) \n        public \n        onlySpender \n        txExists(_txIndex)\n        notExecuted(_txIndex)\n    {\n        Transaction storage transaction = transactions[_txIndex];\n\n        require(\n            transaction.numConfirmations >= numConfirmationsRequired || isTrustedAddress[transaction.to],\n            \"cannot execute tx\"\n        );\n\n        transaction.executed = true;\n\n        (bool success, ) = transaction.to.call{value: transaction.value}(\n            transaction.data\n        );\n        require(success, \"tx failed\");\n\n        emit ExecuteTransaction(msg.sender, _txIndex);\n    }\n\n    function revokeConfirmation(uint _txIndex)\n        public\n        onlyGuardian\n        txExists(_txIndex)\n        notExecuted(_txIndex)\n    {\n        Transaction storage transaction = transactions[_txIndex];\n\n        require(isConfirmed[_txIndex][msg.sender], \"tx not confirmed\");\n\n        transaction.numConfirmations -= 1;\n        isConfirmed[_txIndex][msg.sender] = false;\n\n        emit RevokeTxConfirmation(msg.sender, _txIndex);\n    }\n\n    // Function related to CHANGE SPENDER REQUESTS\n\n    function submitChangeSpenderRequest(\n        address _newSpender\n    ) external onlyGuardian { // external visibility as it is not called inside the contract\n        uint reqIndex = changeSpenderRequests.length;\n\n        changeSpenderRequests.push(\n            ChangeSpenderRequest({\n                newSpender: _newSpender,\n                executed: false,\n                numConfirmations: 0\n            })\n        );\n        \n        confirmChangeSpenderRequest(reqIndex);\n\n        emit SubmitChangeSpender(msg.sender, reqIndex, _newSpender);\n    }\n\n    function confirmChangeSpenderRequest(uint _reqIndex)\n        public\n        onlyGuardian\n        changeSpenderRequestExists(_reqIndex)\n        changeSpenderRequestNotExecuted(_reqIndex)\n        changeSpenderRequestNotConfirmed(_reqIndex)\n    {\n        ChangeSpenderRequest storage req = changeSpenderRequests[_reqIndex];\n        req.numConfirmations += 1;\n        isChangeSpenderRequestConfirmed[_reqIndex][msg.sender] = true;\n        \n        if(req.numConfirmations >= numConfirmationsRequiredToChangeSpender) {\n            executeChangeSpenderRequest(_reqIndex);\n        }\n\n        emit ConfirmChangeSpender(msg.sender, _reqIndex, req.newSpender);\n    }\n\n    function executeChangeSpenderRequest(uint _reqIndex) \n        private \n        onlyGuardian \n        changeSpenderRequestExists(_reqIndex)\n        changeSpenderRequestNotExecuted(_reqIndex)\n    {\n        ChangeSpenderRequest storage req = changeSpenderRequests[_reqIndex];\n\n        require(\n            req.numConfirmations >= numConfirmationsRequiredToChangeSpender,\n            \"cannot execute change spender req\"\n        );\n\n        req.executed = true;\n\n        spender = req.newSpender;\n\n        emit ExecuteChangeSpender(_reqIndex, spender);\n    }\n\n    function revokeChangeSpenderRequestConfirmation(uint _reqIndex)\n        public\n        onlyGuardian\n        changeSpenderRequestExists(_reqIndex)\n        changeSpenderRequestNotExecuted(_reqIndex)\n    {\n        ChangeSpenderRequest storage req = changeSpenderRequests[_reqIndex];\n\n        require(isChangeSpenderRequestConfirmed[_reqIndex][msg.sender], \"change spender req not confirmed\");\n\n        req.numConfirmations -= 1;\n        isChangeSpenderRequestConfirmed[_reqIndex][msg.sender] = false;\n\n       emit RevokeChangeSpender(msg.sender, _reqIndex, req.newSpender);\n    }\n\n    // Functions related to ADD TRUSTED ADDRESSES REQUESTS\n\n    function submitAddTrustedAddressRequest(\n        address _newTrustedAddress\n    ) external onlySpender {\n        uint reqIndex = addTrustedAddressRequests.length;\n\n        addTrustedAddressRequests.push(\n            AddTrustedAddressRequest({\n                newTrustedAddress: _newTrustedAddress,\n                executed: false,\n                numConfirmations: 0\n            })\n        );\n        \n        emit SubmitAddTrusted(msg.sender, reqIndex, _newTrustedAddress);\n    }\n\n    function confirmAddTrustedAddressRequest(uint _reqIndex)\n        external\n        onlyGuardian\n        addTrustedAddressRequestExists(_reqIndex)\n        addTrustedAddressRequestNotExecuted(_reqIndex)\n        addTrustedAddressRequestNotConfirmed(_reqIndex)\n    {\n        AddTrustedAddressRequest storage req = addTrustedAddressRequests[_reqIndex];\n        req.numConfirmations += 1;\n        isAddTrustedAddressRequestConfirmed[_reqIndex][msg.sender] = true;\n        \n        if(req.numConfirmations >= numConfirmationsRequiredToAddTrustedAddress) {\n            executeAddTrustedAddressRequest(_reqIndex);\n        }\n\n        emit ConfirmAddTrusted(msg.sender, _reqIndex, req.newTrustedAddress);\n    }\n\n    function executeAddTrustedAddressRequest(uint _reqIndex) \n        private \n        onlyGuardian \n        addTrustedAddressRequestExists(_reqIndex)\n        addTrustedAddressRequestNotExecuted(_reqIndex)\n    {\n        AddTrustedAddressRequest storage req = addTrustedAddressRequests[_reqIndex];\n\n        require(\n            req.numConfirmations >= numConfirmationsRequiredToAddTrustedAddress,\n            \"cannot execute add trusted address req\"\n        );\n\n        req.executed = true;\n\n        isTrustedAddress[req.newTrustedAddress] = true;\n        \n        emit ExecuteAddTrusted(_reqIndex, req.newTrustedAddress);\n    }\n\n    function removeTrustedAddress(address _trusted) \n        external \n        onlySpender \n    {\n        isTrustedAddress[_trusted] = false;\n\n        emit RemoveTrustedAddress(msg.sender, _trusted);\n    }\n\n\n    function revokeAddTrustedAddressRequestConfirmation(uint _reqIndex)\n        external\n        onlyGuardian\n        addTrustedAddressRequestExists(_reqIndex)\n        addTrustedAddressRequestNotExecuted(_reqIndex)\n    {\n        AddTrustedAddressRequest storage req = addTrustedAddressRequests[_reqIndex];\n\n        require(isAddTrustedAddressRequestConfirmed[_reqIndex][msg.sender], \"add trusted address not confirmed\");\n\n        req.numConfirmations -= 1;\n        isAddTrustedAddressRequestConfirmed[_reqIndex][msg.sender] = false;\n\n        emit RevokeAddTrusted(msg.sender, _reqIndex, req.newTrustedAddress);\n    }\n    \n\n    ///////////\n\n    function getTransactionCount() public view returns (uint) {\n        return transactions.length;\n    }\n\n    function getTransaction(uint _txIndex)\n        public\n        view\n        returns (\n            address to,\n            uint value,\n            bytes memory data,\n            bool executed,\n            uint numConfirmations\n        )\n    {\n        Transaction storage transaction = transactions[_txIndex];\n\n        return (\n            transaction.to,\n            transaction.value,\n            transaction.data,\n            transaction.executed,\n            transaction.numConfirmations\n        );\n    }\n}\n",
  "sourcePath": "/Users/cosimosguanci/Desktop/SocialRecoveryWallet/contracts/SocialRecoveryWallet.sol",
  "compiler": {
    "name": "solc",
    "version": "0.8.3+commit.8d00100c.Emscripten.clang"
  },
  "schemaVersion": "3.4.3",
  "updatedAt": "2021-11-20T05:58:50.142Z",
  "devdoc": {
    "kind": "dev",
    "methods": {},
    "version": 1
  },
  "userdoc": {
    "kind": "user",
    "methods": {},
    "notice": "Proposed solutions for vaulting: - 2 wallets: 1 saving, 1 checking (daily uses), the latter contains few funds and doesn't neeed guardian approval for transaction execution - The savings account by default needs N confirmations for executing a transactions, but has the possibility to have trusted/whitelisted recipients that do not need any guardian approval. Adding an address to the trusted addresses list need the approval by guardians - Daily limit could be implemented by making use of block.timestamp Proposed solution for privacy: - hashing guardians addresses - merkle proofs For increased security and enforcing cooperation between owner and guardians - User secret data hash needed to change spender key, and it could be biometric secret data",
    "version": 1
  }
}